{
  "_format": "hh-sol-artifact-1",
  "contractName": "NewNFT",
  "sourceName": "contracts/NewNFT.sol",
  "abi": [
    {
      "inputs": [
        {
          "internalType": "string",
          "name": "_name",
          "type": "string"
        },
        {
          "internalType": "string",
          "name": "_symbol",
          "type": "string"
        },
        {
          "internalType": "uint256",
          "name": "_tokenSupply",
          "type": "uint256"
        },
        {
          "internalType": "string",
          "name": "_collectionURI",
          "type": "string"
        },
        {
          "internalType": "string",
          "name": "_baseURI",
          "type": "string"
        },
        {
          "internalType": "address",
          "name": "_royaltyReceiverAddress",
          "type": "address"
        }
      ],
      "stateMutability": "nonpayable",
      "type": "constructor"
    },
    {
      "anonymous": false,
      "inputs": [
        {
          "indexed": true,
          "internalType": "address",
          "name": "owner",
          "type": "address"
        },
        {
          "indexed": true,
          "internalType": "address",
          "name": "approved",
          "type": "address"
        },
        {
          "indexed": true,
          "internalType": "uint256",
          "name": "tokenId",
          "type": "uint256"
        }
      ],
      "name": "Approval",
      "type": "event"
    },
    {
      "anonymous": false,
      "inputs": [
        {
          "indexed": true,
          "internalType": "address",
          "name": "owner",
          "type": "address"
        },
        {
          "indexed": true,
          "internalType": "address",
          "name": "operator",
          "type": "address"
        },
        {
          "indexed": false,
          "internalType": "bool",
          "name": "approved",
          "type": "bool"
        }
      ],
      "name": "ApprovalForAll",
      "type": "event"
    },
    {
      "anonymous": false,
      "inputs": [
        {
          "indexed": true,
          "internalType": "address[]",
          "name": "addresses",
          "type": "address[]"
        }
      ],
      "name": "GiftTokens",
      "type": "event"
    },
    {
      "anonymous": false,
      "inputs": [
        {
          "indexed": true,
          "internalType": "address",
          "name": "minter",
          "type": "address"
        }
      ],
      "name": "Mint",
      "type": "event"
    },
    {
      "anonymous": false,
      "inputs": [
        {
          "indexed": true,
          "internalType": "address",
          "name": "minter",
          "type": "address"
        },
        {
          "indexed": true,
          "internalType": "uint256",
          "name": "tokens",
          "type": "uint256"
        }
      ],
      "name": "MintPreSale",
      "type": "event"
    },
    {
      "anonymous": false,
      "inputs": [
        {
          "indexed": true,
          "internalType": "address",
          "name": "previousOwner",
          "type": "address"
        },
        {
          "indexed": true,
          "internalType": "address",
          "name": "newOwner",
          "type": "address"
        }
      ],
      "name": "OwnershipTransferred",
      "type": "event"
    },
    {
      "anonymous": false,
      "inputs": [
        {
          "indexed": true,
          "internalType": "uint256",
          "name": "tokens",
          "type": "uint256"
        }
      ],
      "name": "ReserveTokens",
      "type": "event"
    },
    {
      "anonymous": false,
      "inputs": [
        {
          "indexed": true,
          "internalType": "string",
          "name": "uri",
          "type": "string"
        }
      ],
      "name": "SetBaseURI",
      "type": "event"
    },
    {
      "anonymous": false,
      "inputs": [
        {
          "indexed": true,
          "internalType": "string",
          "name": "uri",
          "type": "string"
        }
      ],
      "name": "SetCollectionURI",
      "type": "event"
    },
    {
      "anonymous": false,
      "inputs": [
        {
          "indexed": true,
          "internalType": "bytes32",
          "name": "root",
          "type": "bytes32"
        }
      ],
      "name": "SetPreSaleMerkleRoot",
      "type": "event"
    },
    {
      "anonymous": false,
      "inputs": [
        {
          "indexed": true,
          "internalType": "address",
          "name": "_address",
          "type": "address"
        }
      ],
      "name": "SetRoyaltyReceiver",
      "type": "event"
    },
    {
      "anonymous": false,
      "inputs": [
        {
          "indexed": true,
          "internalType": "enum NewNFT.SaleState",
          "name": "state",
          "type": "uint8"
        }
      ],
      "name": "SetSaleState",
      "type": "event"
    },
    {
      "anonymous": false,
      "inputs": [
        {
          "indexed": true,
          "internalType": "address",
          "name": "from",
          "type": "address"
        },
        {
          "indexed": true,
          "internalType": "address",
          "name": "to",
          "type": "address"
        },
        {
          "indexed": true,
          "internalType": "uint256",
          "name": "tokenId",
          "type": "uint256"
        }
      ],
      "name": "Transfer",
      "type": "event"
    },
    {
      "anonymous": false,
      "inputs": [
        {
          "indexed": true,
          "internalType": "address",
          "name": "dest",
          "type": "address"
        }
      ],
      "name": "Withdraw",
      "type": "event"
    },
    {
      "anonymous": false,
      "inputs": [
        {
          "indexed": true,
          "internalType": "address",
          "name": "tokenAddress",
          "type": "address"
        },
        {
          "indexed": true,
          "internalType": "address",
          "name": "dest",
          "type": "address"
        }
      ],
      "name": "WithdrawToken",
      "type": "event"
    },
    {
      "inputs": [],
      "name": "MAX_PRE_SALE_MINTS",
      "outputs": [
        {
          "internalType": "uint256",
          "name": "",
          "type": "uint256"
        }
      ],
      "stateMutability": "view",
      "type": "function"
    },
    {
      "inputs": [],
      "name": "MAX_PUBLIC_SALE_MINTS",
      "outputs": [
        {
          "internalType": "uint256",
          "name": "",
          "type": "uint256"
        }
      ],
      "stateMutability": "view",
      "type": "function"
    },
    {
      "inputs": [],
      "name": "MAX_RESERVE_TOKENS",
      "outputs": [
        {
          "internalType": "uint256",
          "name": "",
          "type": "uint256"
        }
      ],
      "stateMutability": "view",
      "type": "function"
    },
    {
      "inputs": [],
      "name": "MAX_TOTAL_SUPPLY",
      "outputs": [
        {
          "internalType": "uint256",
          "name": "",
          "type": "uint256"
        }
      ],
      "stateMutability": "view",
      "type": "function"
    },
    {
      "inputs": [],
      "name": "PRE_SALE_PRICE",
      "outputs": [
        {
          "internalType": "uint256",
          "name": "",
          "type": "uint256"
        }
      ],
      "stateMutability": "view",
      "type": "function"
    },
    {
      "inputs": [],
      "name": "PUBLIC_SALE_PRICE",
      "outputs": [
        {
          "internalType": "uint256",
          "name": "",
          "type": "uint256"
        }
      ],
      "stateMutability": "view",
      "type": "function"
    },
    {
      "inputs": [],
      "name": "ROYALTY_PERCENTAGE",
      "outputs": [
        {
          "internalType": "uint256",
          "name": "",
          "type": "uint256"
        }
      ],
      "stateMutability": "view",
      "type": "function"
    },
    {
      "inputs": [
        {
          "internalType": "address",
          "name": "to",
          "type": "address"
        },
        {
          "internalType": "uint256",
          "name": "tokenId",
          "type": "uint256"
        }
      ],
      "name": "approve",
      "outputs": [],
      "stateMutability": "nonpayable",
      "type": "function"
    },
    {
      "inputs": [
        {
          "internalType": "address",
          "name": "owner",
          "type": "address"
        }
      ],
      "name": "balanceOf",
      "outputs": [
        {
          "internalType": "uint256",
          "name": "",
          "type": "uint256"
        }
      ],
      "stateMutability": "view",
      "type": "function"
    },
    {
      "inputs": [],
      "name": "contractURI",
      "outputs": [
        {
          "internalType": "string",
          "name": "",
          "type": "string"
        }
      ],
      "stateMutability": "view",
      "type": "function"
    },
    {
      "inputs": [
        {
          "internalType": "uint256",
          "name": "tokenId",
          "type": "uint256"
        }
      ],
      "name": "getApproved",
      "outputs": [
        {
          "internalType": "address",
          "name": "",
          "type": "address"
        }
      ],
      "stateMutability": "view",
      "type": "function"
    },
    {
      "inputs": [],
      "name": "getBaseURI",
      "outputs": [
        {
          "internalType": "string",
          "name": "",
          "type": "string"
        }
      ],
      "stateMutability": "view",
      "type": "function"
    },
    {
      "inputs": [],
      "name": "getLastTokenId",
      "outputs": [
        {
          "internalType": "uint256",
          "name": "",
          "type": "uint256"
        }
      ],
      "stateMutability": "view",
      "type": "function"
    },
    {
      "inputs": [
        {
          "internalType": "address[]",
          "name": "addresses",
          "type": "address[]"
        }
      ],
      "name": "giftTokens",
      "outputs": [],
      "stateMutability": "nonpayable",
      "type": "function"
    },
    {
      "inputs": [
        {
          "internalType": "address",
          "name": "owner",
          "type": "address"
        },
        {
          "internalType": "address",
          "name": "operator",
          "type": "address"
        }
      ],
      "name": "isApprovedForAll",
      "outputs": [
        {
          "internalType": "bool",
          "name": "",
          "type": "bool"
        }
      ],
      "stateMutability": "view",
      "type": "function"
    },
    {
      "inputs": [],
      "name": "mint",
      "outputs": [],
      "stateMutability": "payable",
      "type": "function"
    },
    {
      "inputs": [
        {
          "internalType": "string",
          "name": "tokenURI",
          "type": "string"
        }
      ],
      "name": "mint",
      "outputs": [],
      "stateMutability": "payable",
      "type": "function"
    },
    {
      "inputs": [
        {
          "internalType": "uint256",
          "name": "numberOfTokens",
          "type": "uint256"
        },
        {
          "internalType": "bytes32[]",
          "name": "merkleProof",
          "type": "bytes32[]"
        }
      ],
      "name": "mintPreSale",
      "outputs": [],
      "stateMutability": "payable",
      "type": "function"
    },
    {
      "inputs": [],
      "name": "name",
      "outputs": [
        {
          "internalType": "string",
          "name": "",
          "type": "string"
        }
      ],
      "stateMutability": "view",
      "type": "function"
    },
    {
      "inputs": [],
      "name": "numReservedTokens",
      "outputs": [
        {
          "internalType": "uint256",
          "name": "",
          "type": "uint256"
        }
      ],
      "stateMutability": "view",
      "type": "function"
    },
    {
      "inputs": [],
      "name": "owner",
      "outputs": [
        {
          "internalType": "address",
          "name": "",
          "type": "address"
        }
      ],
      "stateMutability": "view",
      "type": "function"
    },
    {
      "inputs": [
        {
          "internalType": "uint256",
          "name": "tokenId",
          "type": "uint256"
        }
      ],
      "name": "ownerOf",
      "outputs": [
        {
          "internalType": "address",
          "name": "",
          "type": "address"
        }
      ],
      "stateMutability": "view",
      "type": "function"
    },
    {
      "inputs": [
        {
          "internalType": "address",
          "name": "",
          "type": "address"
        }
      ],
      "name": "preSaleMintCounts",
      "outputs": [
        {
          "internalType": "uint256",
          "name": "",
          "type": "uint256"
        }
      ],
      "stateMutability": "view",
      "type": "function"
    },
    {
      "inputs": [],
      "name": "provenanceHash",
      "outputs": [
        {
          "internalType": "string",
          "name": "",
          "type": "string"
        }
      ],
      "stateMutability": "view",
      "type": "function"
    },
    {
      "inputs": [],
      "name": "renounceOwnership",
      "outputs": [],
      "stateMutability": "nonpayable",
      "type": "function"
    },
    {
      "inputs": [
        {
          "internalType": "uint256",
          "name": "numberOfTokens",
          "type": "uint256"
        }
      ],
      "name": "reserveTokens",
      "outputs": [],
      "stateMutability": "nonpayable",
      "type": "function"
    },
    {
      "inputs": [
        {
          "internalType": "uint256",
          "name": "tokenId",
          "type": "uint256"
        },
        {
          "internalType": "uint256",
          "name": "salePrice",
          "type": "uint256"
        }
      ],
      "name": "royaltyInfo",
      "outputs": [
        {
          "internalType": "address",
          "name": "receiver",
          "type": "address"
        },
        {
          "internalType": "uint256",
          "name": "royaltyAmount",
          "type": "uint256"
        }
      ],
      "stateMutability": "view",
      "type": "function"
    },
    {
      "inputs": [],
      "name": "royaltyReceiverAddress",
      "outputs": [
        {
          "internalType": "address",
          "name": "",
          "type": "address"
        }
      ],
      "stateMutability": "view",
      "type": "function"
    },
    {
      "inputs": [
        {
          "internalType": "address",
          "name": "from",
          "type": "address"
        },
        {
          "internalType": "address",
          "name": "to",
          "type": "address"
        },
        {
          "internalType": "uint256",
          "name": "tokenId",
          "type": "uint256"
        }
      ],
      "name": "safeTransferFrom",
      "outputs": [],
      "stateMutability": "nonpayable",
      "type": "function"
    },
    {
      "inputs": [
        {
          "internalType": "address",
          "name": "from",
          "type": "address"
        },
        {
          "internalType": "address",
          "name": "to",
          "type": "address"
        },
        {
          "internalType": "uint256",
          "name": "tokenId",
          "type": "uint256"
        },
        {
          "internalType": "bytes",
          "name": "data",
          "type": "bytes"
        }
      ],
      "name": "safeTransferFrom",
      "outputs": [],
      "stateMutability": "nonpayable",
      "type": "function"
    },
    {
      "inputs": [],
      "name": "saleState",
      "outputs": [
        {
          "internalType": "enum NewNFT.SaleState",
          "name": "",
          "type": "uint8"
        }
      ],
      "stateMutability": "view",
      "type": "function"
    },
    {
      "inputs": [
        {
          "internalType": "address",
          "name": "operator",
          "type": "address"
        },
        {
          "internalType": "bool",
          "name": "approved",
          "type": "bool"
        }
      ],
      "name": "setApprovalForAll",
      "outputs": [],
      "stateMutability": "nonpayable",
      "type": "function"
    },
    {
      "inputs": [
        {
          "internalType": "string",
          "name": "newbaseURI",
          "type": "string"
        }
      ],
      "name": "setBaseURI",
      "outputs": [],
      "stateMutability": "nonpayable",
      "type": "function"
    },
    {
      "inputs": [
        {
          "internalType": "string",
          "name": "_collectionURI",
          "type": "string"
        }
      ],
      "name": "setCollectionURI",
      "outputs": [],
      "stateMutability": "nonpayable",
      "type": "function"
    },
    {
      "inputs": [],
      "name": "setPreSaleActive",
      "outputs": [],
      "stateMutability": "nonpayable",
      "type": "function"
    },
    {
      "inputs": [
        {
          "internalType": "bytes32",
          "name": "merkleRoot",
          "type": "bytes32"
        }
      ],
      "name": "setPreSaleListMerkleRoot",
      "outputs": [],
      "stateMutability": "nonpayable",
      "type": "function"
    },
    {
      "inputs": [
        {
          "internalType": "string",
          "name": "_hash",
          "type": "string"
        }
      ],
      "name": "setProvenanceHash",
      "outputs": [],
      "stateMutability": "nonpayable",
      "type": "function"
    },
    {
      "inputs": [],
      "name": "setPublicSaleActive",
      "outputs": [],
      "stateMutability": "nonpayable",
      "type": "function"
    },
    {
      "inputs": [
        {
          "internalType": "address",
          "name": "_royaltyReceiverAddress",
          "type": "address"
        }
      ],
      "name": "setRoyaltyReceiverAddress",
      "outputs": [],
      "stateMutability": "nonpayable",
      "type": "function"
    },
    {
      "inputs": [],
      "name": "setSaleInactive",
      "outputs": [],
      "stateMutability": "nonpayable",
      "type": "function"
    },
    {
      "inputs": [
        {
          "internalType": "bytes4",
          "name": "interfaceId",
          "type": "bytes4"
        }
      ],
      "name": "supportsInterface",
      "outputs": [
        {
          "internalType": "bool",
          "name": "",
          "type": "bool"
        }
      ],
      "stateMutability": "view",
      "type": "function"
    },
    {
      "inputs": [],
      "name": "symbol",
      "outputs": [
        {
          "internalType": "string",
          "name": "",
          "type": "string"
        }
      ],
      "stateMutability": "view",
      "type": "function"
    },
    {
      "inputs": [
        {
          "internalType": "uint256",
          "name": "tokenId",
          "type": "uint256"
        }
      ],
      "name": "tokenURI",
      "outputs": [
        {
          "internalType": "string",
          "name": "",
          "type": "string"
        }
      ],
      "stateMutability": "view",
      "type": "function"
    },
    {
      "inputs": [
        {
          "internalType": "address",
          "name": "from",
          "type": "address"
        },
        {
          "internalType": "address",
          "name": "to",
          "type": "address"
        },
        {
          "internalType": "uint256",
          "name": "tokenId",
          "type": "uint256"
        }
      ],
      "name": "transferFrom",
      "outputs": [],
      "stateMutability": "nonpayable",
      "type": "function"
    },
    {
      "inputs": [
        {
          "internalType": "address",
          "name": "newOwner",
          "type": "address"
        }
      ],
      "name": "transferOwnership",
      "outputs": [],
      "stateMutability": "nonpayable",
      "type": "function"
    },
    {
      "inputs": [
        {
          "internalType": "address payable",
          "name": "_dest",
          "type": "address"
        }
      ],
      "name": "withdraw",
      "outputs": [],
      "stateMutability": "nonpayable",
      "type": "function"
    },
    {
      "inputs": [
        {
          "internalType": "address",
          "name": "_tokenAddress",
          "type": "address"
        },
        {
          "internalType": "address",
          "name": "_dest",
          "type": "address"
        }
      ],
      "name": "withdrawToken",
      "outputs": [],
      "stateMutability": "nonpayable",
      "type": "function"
    },
    {
      "stateMutability": "payable",
      "type": "receive"
    }
  ],
  "bytecode": "0x60a06040526002601060006101000a81548160ff021916908360028111156200002d576200002c620001fc565b5b02179055503480156200003f57600080fd5b506040516200652c3803806200652c83398181016040528101906200006591906200045e565b85858160009081620000789190620007b7565b5080600190816200008a9190620007b7565b505050620000ad620000a16200012e60201b60201c565b6200013660201b60201c565b6001600781905550836080818152505082600a9081620000ce9190620007b7565b508160099081620000e09190620007b7565b5080601060016101000a81548173ffffffffffffffffffffffffffffffffffffffff021916908373ffffffffffffffffffffffffffffffffffffffff1602179055505050505050506200089e565b600033905090565b6000600660009054906101000a900473ffffffffffffffffffffffffffffffffffffffff16905081600660006101000a81548173ffffffffffffffffffffffffffffffffffffffff021916908373ffffffffffffffffffffffffffffffffffffffff1602179055508173ffffffffffffffffffffffffffffffffffffffff168173ffffffffffffffffffffffffffffffffffffffff167f8be0079c531659141344cd1fd0a4f28419497f9722a3daafe3b4186f6b6457e060405160405180910390a35050565b7f4e487b7100000000000000000000000000000000000000000000000000000000600052602160045260246000fd5b6000604051905090565b600080fd5b600080fd5b600080fd5b600080fd5b6000601f19601f8301169050919050565b7f4e487b7100000000000000000000000000000000000000000000000000000000600052604160045260246000fd5b620002948262000249565b810181811067ffffffffffffffff82111715620002b657620002b56200025a565b5b80604052505050565b6000620002cb6200022b565b9050620002d9828262000289565b919050565b600067ffffffffffffffff821115620002fc57620002fb6200025a565b5b620003078262000249565b9050602081019050919050565b60005b838110156200033457808201518184015260208101905062000317565b60008484015250505050565b6000620003576200035184620002de565b620002bf565b90508281526020810184848401111562000376576200037562000244565b5b6200038384828562000314565b509392505050565b600082601f830112620003a357620003a26200023f565b5b8151620003b584826020860162000340565b91505092915050565b6000819050919050565b620003d381620003be565b8114620003df57600080fd5b50565b600081519050620003f381620003c8565b92915050565b600073ffffffffffffffffffffffffffffffffffffffff82169050919050565b60006200042682620003f9565b9050919050565b620004388162000419565b81146200044457600080fd5b50565b60008151905062000458816200042d565b92915050565b60008060008060008060c087890312156200047e576200047d62000235565b5b600087015167ffffffffffffffff8111156200049f576200049e6200023a565b5b620004ad89828a016200038b565b965050602087015167ffffffffffffffff811115620004d157620004d06200023a565b5b620004df89828a016200038b565b9550506040620004f289828a01620003e2565b945050606087015167ffffffffffffffff8111156200051657620005156200023a565b5b6200052489828a016200038b565b935050608087015167ffffffffffffffff8111156200054857620005476200023a565b5b6200055689828a016200038b565b92505060a06200056989828a0162000447565b9150509295509295509295565b600081519050919050565b7f4e487b7100000000000000000000000000000000000000000000000000000000600052602260045260246000fd5b60006002820490506001821680620005c957607f821691505b602082108103620005df57620005de62000581565b5b50919050565b60008190508160005260206000209050919050565b60006020601f8301049050919050565b600082821b905092915050565b600060088302620006497fffffffffffffffffffffffffffffffffffffffffffffffffffffffffffffffff826200060a565b6200065586836200060a565b95508019841693508086168417925050509392505050565b6000819050919050565b600062000698620006926200068c84620003be565b6200066d565b620003be565b9050919050565b6000819050919050565b620006b48362000677565b620006cc620006c3826200069f565b84845462000617565b825550505050565b600090565b620006e3620006d4565b620006f0818484620006a9565b505050565b5b8181101562000718576200070c600082620006d9565b600181019050620006f6565b5050565b601f82111562000767576200073181620005e5565b6200073c84620005fa565b810160208510156200074c578190505b620007646200075b85620005fa565b830182620006f5565b50505b505050565b600082821c905092915050565b60006200078c600019846008026200076c565b1980831691505092915050565b6000620007a7838362000779565b9150826002028217905092915050565b620007c28262000576565b67ffffffffffffffff811115620007de57620007dd6200025a565b5b620007ea8254620005b0565b620007f78282856200071c565b600060209050601f8311600181146200082f57600084156200081a578287015190505b62000826858262000799565b86555062000896565b601f1984166200083f86620005e5565b60005b82811015620008695784890151825560018201915060208501945060208101905062000842565b8683101562000889578489015162000885601f89168262000779565b8355505b6001600288020188555050505b505050505050565b608051615c4f620008dd60003960008181610e31015281816110e7015281816112f40152818161199c01528181611f6f015261212f0152615c4f6000f3fe60806040526004361061028c5760003560e01c8063603f4d521161015a5780639e6b2c5b116100c1578063d031370b1161007a578063d031370b14610960578063d85d3d2714610989578063dc7eda7d146109a5578063e8a3d485146109d0578063e985e9c5146109fb578063f2fde38b14610a3857610293565b80639e6b2c5b14610861578063a22cb4651461087d578063af42d82d146108a6578063b88d4fde146108cf578063c6ab67a3146108f8578063c87b56dd1461092357610293565b806383c4c00d1161011357806383c4c00d1461074f5780638a8fe8191461077a5780638b4f8463146107b75780638da5cb5b146107e057806395d89b411461080b5780639dd85f171461083657610293565b8063603f4d521461063d5780636352211e1461066857806363ff5e17146106a557806370a08231146106d0578063714c53981461070d578063715018a61461073857610293565b806323b872dd116101fe57806342842e0e116101b757806342842e0e14610543578063440754d81461056c578063463b08db14610595578063508881c1146105c057806351cff8d9146105eb57806355f804b31461061457610293565b806323b872dd146104485780632639f460146104715780632a55205a1461049a57806333039d3d146104d85780633aeac4e1146105035780633e11ab3f1461052c57610293565b80630cd6fba9116102505780630cd6fba91461039157806310969523146103a857806311e3dbca146103d15780631249c58b146103fc578063193402bb1461040657806320fe418a1461043157610293565b806301ffc9a71461029857806306fdde03146102d557806307e89ec014610300578063081812fc1461032b578063095ea7b31461036857610293565b3661029357005b600080fd5b3480156102a457600080fd5b506102bf60048036038101906102ba9190613ab8565b610a61565b6040516102cc9190613b00565b60405180910390f35b3480156102e157600080fd5b506102ea610adb565b6040516102f79190613bab565b60405180910390f35b34801561030c57600080fd5b50610315610b6d565b6040516103229190613be6565b60405180910390f35b34801561033757600080fd5b50610352600480360381019061034d9190613c2d565b610b72565b60405161035f9190613c9b565b60405180910390f35b34801561037457600080fd5b5061038f600480360381019061038a9190613ce2565b610bb8565b005b34801561039d57600080fd5b506103a6610ccf565b005b3480156103b457600080fd5b506103cf60048036038101906103ca9190613d87565b610d44565b005b3480156103dd57600080fd5b506103e6610d62565b6040516103f39190613be6565b60405180910390f35b610404610d68565b005b34801561041257600080fd5b5061041b610f1a565b6040516104289190613be6565b60405180910390f35b34801561043d57600080fd5b50610446610f1f565b005b34801561045457600080fd5b5061046f600480360381019061046a9190613dd4565b610f94565b005b34801561047d57600080fd5b5061049860048036038101906104939190613f57565b610ff4565b005b3480156104a657600080fd5b506104c160048036038101906104bc9190613fa0565b611051565b6040516104cf929190613fe0565b60405180910390f35b3480156104e457600080fd5b506104ed6110e5565b6040516104fa9190613be6565b60405180910390f35b34801561050f57600080fd5b5061052a60048036038101906105259190614009565b611109565b005b34801561053857600080fd5b506105416111f9565b005b34801561054f57600080fd5b5061056a60048036038101906105659190613dd4565b61126d565b005b34801561057857600080fd5b50610593600480360381019061058e919061409f565b61128d565b005b3480156105a157600080fd5b506105aa61147a565b6040516105b79190613be6565b60405180910390f35b3480156105cc57600080fd5b506105d561147f565b6040516105e29190613be6565b60405180910390f35b3480156105f757600080fd5b50610612600480360381019061060d919061412a565b611484565b005b34801561062057600080fd5b5061063b60048036038101906106369190613f57565b611501565b005b34801561064957600080fd5b5061065261155e565b60405161065f91906141ce565b60405180910390f35b34801561067457600080fd5b5061068f600480360381019061068a9190613c2d565b611571565b60405161069c9190613c9b565b60405180910390f35b3480156106b157600080fd5b506106ba6115f7565b6040516106c79190613be6565b60405180910390f35b3480156106dc57600080fd5b506106f760048036038101906106f291906141e9565b6115fc565b6040516107049190613be6565b60405180910390f35b34801561071957600080fd5b506107226116b3565b60405161072f9190613bab565b60405180910390f35b34801561074457600080fd5b5061074d611745565b005b34801561075b57600080fd5b50610764611759565b6040516107719190613be6565b60405180910390f35b34801561078657600080fd5b506107a1600480360381019061079c91906141e9565b61176a565b6040516107ae9190613be6565b60405180910390f35b3480156107c357600080fd5b506107de60048036038101906107d991906141e9565b611782565b005b3480156107ec57600080fd5b506107f5611811565b6040516108029190613c9b565b60405180910390f35b34801561081757600080fd5b5061082061183b565b60405161082d9190613bab565b60405180910390f35b34801561084257600080fd5b5061084b6118cd565b6040516108589190613be6565b60405180910390f35b61087b6004803603810190610876919061426c565b6118d2565b005b34801561088957600080fd5b506108a4600480360381019061089f91906142f8565b611c7d565b005b3480156108b257600080fd5b506108cd60048036038101906108c8919061436e565b611c93565b005b3480156108db57600080fd5b506108f660048036038101906108f1919061443c565b611cd2565b005b34801561090457600080fd5b5061090d611d34565b60405161091a9190613bab565b60405180910390f35b34801561092f57600080fd5b5061094a60048036038101906109459190613c2d565b611dc2565b6040516109579190613bab565b60405180910390f35b34801561096c57600080fd5b5061098760048036038101906109829190613c2d565b611f0b565b005b6109a3600480360381019061099e9190613f57565b612066565b005b3480156109b157600080fd5b506109ba612229565b6040516109c79190613c9b565b60405180910390f35b3480156109dc57600080fd5b506109e561224f565b6040516109f29190613bab565b60405180910390f35b348015610a0757600080fd5b50610a226004803603810190610a1d9190614009565b6122e1565b604051610a2f9190613b00565b60405180910390f35b348015610a4457600080fd5b50610a5f6004803603810190610a5a91906141e9565b612375565b005b60007f2a55205a000000000000000000000000000000000000000000000000000000007bffffffffffffffffffffffffffffffffffffffffffffffffffffffff1916827bffffffffffffffffffffffffffffffffffffffffffffffffffffffff19161480610ad45750610ad3826123f8565b5b9050919050565b606060008054610aea906144ee565b80601f0160208091040260200160405190810160405280929190818152602001828054610b16906144ee565b8015610b635780601f10610b3857610100808354040283529160200191610b63565b820191906000526020600020905b815481529060010190602001808311610b4657829003601f168201915b5050505050905090565b600081565b6000610b7d826124da565b6004600083815260200190815260200160002060009054906101000a900473ffffffffffffffffffffffffffffffffffffffff169050919050565b6000610bc382611571565b90508073ffffffffffffffffffffffffffffffffffffffff168373ffffffffffffffffffffffffffffffffffffffff1603610c33576040517f08c379a0000000000000000000000000000000000000000000000000000000008152600401610c2a90614591565b60405180910390fd5b8073ffffffffffffffffffffffffffffffffffffffff16610c52612525565b73ffffffffffffffffffffffffffffffffffffffff161480610c815750610c8081610c7b612525565b6122e1565b5b610cc0576040517f08c379a0000000000000000000000000000000000000000000000000000000008152600401610cb790614623565b60405180910390fd5b610cca838361252d565b505050565b610cd76125e6565b6000601060006101000a81548160ff02191690836002811115610cfd57610cfc614157565b5b021790555060006002811115610d1657610d15614157565b5b7f784851bf4f56ebb482b14174b5fcc43c006ca236a47dcb14d8eedcf0eddc503e60405160405180910390a2565b610d4c6125e6565b8181600b9182610d5d9291906147fa565b505050565b600c5481565b610d70612664565b600280811115610d8357610d82614157565b5b601060009054906101000a900460ff166002811115610da557610da4614157565b5b14610de5576040517f08c379a0000000000000000000000000000000000000000000000000000000008152600401610ddc90614916565b60405180910390fd5b600034811115610e2a576040517f08c379a0000000000000000000000000000000000000000000000000000000008152600401610e2190614982565b60405180910390fd5b600c5460c87f0000000000000000000000000000000000000000000000000000000000000000610e5a91906149d1565b610e649190614a05565b6001610e7060086126b3565b610e7a9190614a05565b1115610ebb576040517f08c379a0000000000000000000000000000000000000000000000000000000008152600401610eb290614a85565b60405180910390fd5b610ecc33610ec76126c1565b6126dc565b3373ffffffffffffffffffffffffffffffffffffffff167f3c3284d117c92d0b1699230960384e794dcba184cc48ff114fe4fed20c9b056560405160405180910390a250610f186126fa565b565b600081565b610f276125e6565b6001601060006101000a81548160ff02191690836002811115610f4d57610f4c614157565b5b021790555060016002811115610f6657610f65614157565b5b7f784851bf4f56ebb482b14174b5fcc43c006ca236a47dcb14d8eedcf0eddc503e60405160405180910390a2565b610fa5610f9f612525565b82612704565b610fe4576040517f08c379a0000000000000000000000000000000000000000000000000000000008152600401610fdb90614b17565b60405180910390fd5b610fef838383612799565b505050565b610ffc6125e6565b80600a908161100b9190614b37565b508060405161101a9190614c45565b60405180910390207ff88079580916acca3afc2e0f6ce909bab62d70f38e856286ffd15925be4fd9cc60405160405180910390a250565b6000808361105e81612a92565b61109d576040517f08c379a000000000000000000000000000000000000000000000000000000000815260040161109490614ca8565b60405180910390fd5b601060019054906101000a900473ffffffffffffffffffffffffffffffffffffffff1660646005866110cf9190614cc8565b6110d99190614d39565b92509250509250929050565b7f000000000000000000000000000000000000000000000000000000000000000081565b6111116125e6565b60008273ffffffffffffffffffffffffffffffffffffffff166370a08231306040518263ffffffff1660e01b815260040161114c9190613c9b565b602060405180830381865afa158015611169573d6000803e3d6000fd5b505050506040513d601f19601f8201168201806040525081019061118d9190614d7f565b905061119a838383612ad3565b8173ffffffffffffffffffffffffffffffffffffffff168373ffffffffffffffffffffffffffffffffffffffff167fce9ecd720079c00c86716fadb783ea8b0577f02c0f55b98d8a4a86ecdcb7918b60405160405180910390a3505050565b6112016125e6565b6002601060006101000a81548160ff0219169083600281111561122757611226614157565b5b021790555060028081111561123f5761123e614157565b5b7f784851bf4f56ebb482b14174b5fcc43c006ca236a47dcb14d8eedcf0eddc503e60405160405180910390a2565b61128883838360405180602001604052806000815250611cd2565b505050565b611295612664565b61129d6125e6565b8181905060c881600c546112b19190614a05565b11156112f2576040517f08c379a00000000000000000000000000000000000000000000000000000000081526004016112e990614df8565b60405180910390fd5b7f00000000000000000000000000000000000000000000000000000000000000008161131e60086126b3565b6113289190614a05565b1115611369576040517f08c379a000000000000000000000000000000000000000000000000000000000815260040161136090614a85565b60405180910390fd5b8282600082829050116113b1576040517f08c379a00000000000000000000000000000000000000000000000000000000081526004016113a890614e64565b60405180910390fd5b84849050600c60008282546113c69190614a05565b9250508190555060005b85859050811015611426576114138686838181106113f1576113f0614e84565b5b905060200201602081019061140691906141e9565b61140e6126c1565b6126dc565b808061141e90614eb3565b9150506113d0565b508484604051611437929190614fb8565b60405180910390207f60f9e182d4e9c17b0b89f72aca3c084950624d5c97740ab7c37368ed9c1b561960405160405180910390a25050506114766126fa565b5050565b600581565b601481565b61148c6125e6565b60004790506114ba818373ffffffffffffffffffffffffffffffffffffffff16612b5990919063ffffffff16565b8173ffffffffffffffffffffffffffffffffffffffff167ff67611512e0a2d90c96fd3f08dca4971bc45fba9dc679eabe839a32abbe58a8e60405160405180910390a25050565b6115096125e6565b80600990816115189190614b37565b50806040516115279190614c45565b60405180910390207f23c8c9488efebfd474e85a7956de6f39b17c7ab88502d42a623db2d8e382bbaa60405160405180910390a250565b601060009054906101000a900460ff1681565b60008061157d83612c4d565b9050600073ffffffffffffffffffffffffffffffffffffffff168173ffffffffffffffffffffffffffffffffffffffff16036115ee576040517f08c379a00000000000000000000000000000000000000000000000000000000081526004016115e59061501d565b60405180910390fd5b80915050919050565b60c881565b60008073ffffffffffffffffffffffffffffffffffffffff168273ffffffffffffffffffffffffffffffffffffffff160361166c576040517f08c379a0000000000000000000000000000000000000000000000000000000008152600401611663906150af565b60405180910390fd5b600360008373ffffffffffffffffffffffffffffffffffffffff1673ffffffffffffffffffffffffffffffffffffffff168152602001908152602001600020549050919050565b6060600980546116c2906144ee565b80601f01602080910402602001604051908101604052809291908181526020018280546116ee906144ee565b801561173b5780601f106117105761010080835404028352916020019161173b565b820191906000526020600020905b81548152906001019060200180831161171e57829003601f168201915b5050505050905090565b61174d6125e6565b6117576000612c8a565b565b600061176560086126b3565b905090565b600e6020528060005260406000206000915090505481565b61178a6125e6565b80601060016101000a81548173ffffffffffffffffffffffffffffffffffffffff021916908373ffffffffffffffffffffffffffffffffffffffff1602179055508073ffffffffffffffffffffffffffffffffffffffff167f1b7503b18e6e011fd6a493067321794279eb00b8bad2baefa1d771b2e98f216c60405160405180910390a250565b6000600660009054906101000a900473ffffffffffffffffffffffffffffffffffffffff16905090565b60606001805461184a906144ee565b80601f0160208091040260200160405190810160405280929190818152602001828054611876906144ee565b80156118c35780601f10611898576101008083540402835291602001916118c3565b820191906000526020600020905b8154815290600101906020018083116118a657829003601f168201915b5050505050905090565b600381565b6118da612664565b600160028111156118ee576118ed614157565b5b601060009054906101000a900460ff1660028111156119105761190f614157565b5b14611950576040517f08c379a00000000000000000000000000000000000000000000000000000000081526004016119479061511b565b60405180910390fd5b600034811115611995576040517f08c379a000000000000000000000000000000000000000000000000000000000815260040161198c90614982565b60405180910390fd5b600c5460c87f00000000000000000000000000000000000000000000000000000000000000006119c591906149d1565b6119cf9190614a05565b60016119db60086126b3565b6119e59190614a05565b1115611a26576040517f08c379a0000000000000000000000000000000000000000000000000000000008152600401611a1d90614a85565b60405180910390fd5b8282611a9c828280806020026020016040519081016040528093929190818152602001838360200280828437600081840152601f19601f82011690508083019250505050505050600f5433604051602001611a819190615183565b60405160208183030381529060405280519060200120612d50565b611adb576040517f08c379a0000000000000000000000000000000000000000000000000000000008152600401611ad2906151ea565b60405180910390fd5b85600381600e60003373ffffffffffffffffffffffffffffffffffffffff1673ffffffffffffffffffffffffffffffffffffffff16815260200190815260200160002054611b299190614a05565b1115611b6a576040517f08c379a0000000000000000000000000000000000000000000000000000000008152600401611b6190615256565b60405180910390fd5b86600e60003373ffffffffffffffffffffffffffffffffffffffff1673ffffffffffffffffffffffffffffffffffffffff16815260200190815260200160002054611bb59190614a05565b600e60003373ffffffffffffffffffffffffffffffffffffffff1673ffffffffffffffffffffffffffffffffffffffff1681526020019081526020016000208190555060005b87811015611c2757611c1433611c0f6126c1565b6126dc565b8080611c1f90614eb3565b915050611bfb565b50863373ffffffffffffffffffffffffffffffffffffffff167f7ecbc6c2508739b8cb9f4ce243de4345253602f1ea2f8ba5e0ac26f1eecc63aa60405160405180910390a350505050611c786126fa565b505050565b611c8f611c88612525565b8383612d67565b5050565b611c9b6125e6565b80600f81905550807f2965d6e68e4e35cf06fce0f92ff1ee28e7d29bde2bf6b0557d8f22e78171432d60405160405180910390a250565b611ce3611cdd612525565b83612704565b611d22576040517f08c379a0000000000000000000000000000000000000000000000000000000008152600401611d1990614b17565b60405180910390fd5b611d2e84848484612ed3565b50505050565b600b8054611d41906144ee565b80601f0160208091040260200160405190810160405280929190818152602001828054611d6d906144ee565b8015611dba5780601f10611d8f57610100808354040283529160200191611dba565b820191906000526020600020905b815481529060010190602001808311611d9d57829003601f168201915b505050505081565b606081611dce81612a92565b611e0d576040517f08c379a0000000000000000000000000000000000000000000000000000000008152600401611e0490614ca8565b60405180910390fd5b6000600d60008581526020019081526020016000208054611e2d906144ee565b905014611ed757600d60008481526020019081526020016000208054611e52906144ee565b80601f0160208091040260200160405190810160405280929190818152602001828054611e7e906144ee565b8015611ecb5780601f10611ea057610100808354040283529160200191611ecb565b820191906000526020600020905b815481529060010190602001808311611eae57829003601f168201915b50505050509150611f05565b6009611ee284612f2f565b604051602001611ef3929190615345565b60405160208183030381529060405291505b50919050565b611f13612664565b611f1b6125e6565b8060c881600c54611f2c9190614a05565b1115611f6d576040517f08c379a0000000000000000000000000000000000000000000000000000000008152600401611f6490614df8565b60405180910390fd5b7f000000000000000000000000000000000000000000000000000000000000000081611f9960086126b3565b611fa39190614a05565b1115611fe4576040517f08c379a0000000000000000000000000000000000000000000000000000000008152600401611fdb90614a85565b60405180910390fd5b81600c6000828254611ff69190614a05565b9250508190555060005b8281101561202c57612019336120146126c1565b6126dc565b808061202490614eb3565b915050612000565b50817fa3fef113f707ae04eb95a86404ce54b1b062eee16db52dc37266dbdd1cbaef1160405160405180910390a2506120636126fa565b50565b61206e612664565b60028081111561208157612080614157565b5b601060009054906101000a900460ff1660028111156120a3576120a2614157565b5b146120e3576040517f08c379a00000000000000000000000000000000000000000000000000000000081526004016120da90614916565b60405180910390fd5b600034811115612128576040517f08c379a000000000000000000000000000000000000000000000000000000000815260040161211f90614982565b60405180910390fd5b600c5460c87f000000000000000000000000000000000000000000000000000000000000000061215891906149d1565b6121629190614a05565b600161216e60086126b3565b6121789190614a05565b11156121b9576040517f08c379a00000000000000000000000000000000000000000000000000000000081526004016121b090614a85565b60405180910390fd5b60006121c36126c1565b90506121cf33826126dc565b6121d98184612ffd565b3373ffffffffffffffffffffffffffffffffffffffff167f3c3284d117c92d0b1699230960384e794dcba184cc48ff114fe4fed20c9b056560405160405180910390a250506122266126fa565b50565b601060019054906101000a900473ffffffffffffffffffffffffffffffffffffffff1681565b6060600a805461225e906144ee565b80601f016020809104026020016040519081016040528092919081815260200182805461228a906144ee565b80156122d75780601f106122ac576101008083540402835291602001916122d7565b820191906000526020600020905b8154815290600101906020018083116122ba57829003601f168201915b5050505050905090565b6000600560008473ffffffffffffffffffffffffffffffffffffffff1673ffffffffffffffffffffffffffffffffffffffff16815260200190815260200160002060008373ffffffffffffffffffffffffffffffffffffffff1673ffffffffffffffffffffffffffffffffffffffff16815260200190815260200160002060009054906101000a900460ff16905092915050565b61237d6125e6565b600073ffffffffffffffffffffffffffffffffffffffff168173ffffffffffffffffffffffffffffffffffffffff16036123ec576040517f08c379a00000000000000000000000000000000000000000000000000000000081526004016123e3906153e6565b60405180910390fd5b6123f581612c8a565b50565b60007f80ac58cd000000000000000000000000000000000000000000000000000000007bffffffffffffffffffffffffffffffffffffffffffffffffffffffff1916827bffffffffffffffffffffffffffffffffffffffffffffffffffffffff191614806124c357507f5b5e139f000000000000000000000000000000000000000000000000000000007bffffffffffffffffffffffffffffffffffffffffffffffffffffffff1916827bffffffffffffffffffffffffffffffffffffffffffffffffffffffff1916145b806124d357506124d282613022565b5b9050919050565b6124e381612a92565b612522576040517f08c379a00000000000000000000000000000000000000000000000000000000081526004016125199061501d565b60405180910390fd5b50565b600033905090565b816004600083815260200190815260200160002060006101000a81548173ffffffffffffffffffffffffffffffffffffffff021916908373ffffffffffffffffffffffffffffffffffffffff160217905550808273ffffffffffffffffffffffffffffffffffffffff166125a083611571565b73ffffffffffffffffffffffffffffffffffffffff167f8c5be1e5ebec7d5bd14f71427d1e84f3dd0314c0f7b2291e5b200ac8c7c3b92560405160405180910390a45050565b6125ee612525565b73ffffffffffffffffffffffffffffffffffffffff1661260c611811565b73ffffffffffffffffffffffffffffffffffffffff1614612662576040517f08c379a000000000000000000000000000000000000000000000000000000000815260040161265990615452565b60405180910390fd5b565b6002600754036126a9576040517f08c379a00000000000000000000000000000000000000000000000000000000081526004016126a0906154be565b60405180910390fd5b6002600781905550565b600081600001549050919050565b60006126cd600861308c565b6126d760086126b3565b905090565b6126f68282604051806020016040528060008152506130a2565b5050565b6001600781905550565b60008061271083611571565b90508073ffffffffffffffffffffffffffffffffffffffff168473ffffffffffffffffffffffffffffffffffffffff161480612752575061275181856122e1565b5b8061279057508373ffffffffffffffffffffffffffffffffffffffff1661277884610b72565b73ffffffffffffffffffffffffffffffffffffffff16145b91505092915050565b8273ffffffffffffffffffffffffffffffffffffffff166127b982611571565b73ffffffffffffffffffffffffffffffffffffffff161461280f576040517f08c379a000000000000000000000000000000000000000000000000000000000815260040161280690615550565b60405180910390fd5b600073ffffffffffffffffffffffffffffffffffffffff168273ffffffffffffffffffffffffffffffffffffffff160361287e576040517f08c379a0000000000000000000000000000000000000000000000000000000008152600401612875906155e2565b60405180910390fd5b61288b83838360016130fd565b8273ffffffffffffffffffffffffffffffffffffffff166128ab82611571565b73ffffffffffffffffffffffffffffffffffffffff1614612901576040517f08c379a00000000000000000000000000000000000000000000000000000000081526004016128f890615550565b60405180910390fd5b6004600082815260200190815260200160002060006101000a81549073ffffffffffffffffffffffffffffffffffffffff02191690556001600360008573ffffffffffffffffffffffffffffffffffffffff1673ffffffffffffffffffffffffffffffffffffffff168152602001908152602001600020600082825403925050819055506001600360008473ffffffffffffffffffffffffffffffffffffffff1673ffffffffffffffffffffffffffffffffffffffff16815260200190815260200160002060008282540192505081905550816002600083815260200190815260200160002060006101000a81548173ffffffffffffffffffffffffffffffffffffffff021916908373ffffffffffffffffffffffffffffffffffffffff160217905550808273ffffffffffffffffffffffffffffffffffffffff168473ffffffffffffffffffffffffffffffffffffffff167fddf252ad1be2c89b69c2b068fc378daa952ba7f163c4a11628f55a4df523b3ef60405160405180910390a4612a8d8383836001613223565b505050565b60008073ffffffffffffffffffffffffffffffffffffffff16612ab483612c4d565b73ffffffffffffffffffffffffffffffffffffffff1614159050919050565b612b548363a9059cbb60e01b8484604051602401612af2929190613fe0565b604051602081830303815290604052907bffffffffffffffffffffffffffffffffffffffffffffffffffffffff19166020820180517bffffffffffffffffffffffffffffffffffffffffffffffffffffffff8381831617835250505050613229565b505050565b80471015612b9c576040517f08c379a0000000000000000000000000000000000000000000000000000000008152600401612b939061564e565b60405180910390fd5b60008273ffffffffffffffffffffffffffffffffffffffff1682604051612bc29061569f565b60006040518083038185875af1925050503d8060008114612bff576040519150601f19603f3d011682016040523d82523d6000602084013e612c04565b606091505b5050905080612c48576040517f08c379a0000000000000000000000000000000000000000000000000000000008152600401612c3f90615726565b60405180910390fd5b505050565b60006002600083815260200190815260200160002060009054906101000a900473ffffffffffffffffffffffffffffffffffffffff169050919050565b6000600660009054906101000a900473ffffffffffffffffffffffffffffffffffffffff16905081600660006101000a81548173ffffffffffffffffffffffffffffffffffffffff021916908373ffffffffffffffffffffffffffffffffffffffff1602179055508173ffffffffffffffffffffffffffffffffffffffff168173ffffffffffffffffffffffffffffffffffffffff167f8be0079c531659141344cd1fd0a4f28419497f9722a3daafe3b4186f6b6457e060405160405180910390a35050565b600082612d5d85846132f0565b1490509392505050565b8173ffffffffffffffffffffffffffffffffffffffff168373ffffffffffffffffffffffffffffffffffffffff1603612dd5576040517f08c379a0000000000000000000000000000000000000000000000000000000008152600401612dcc90615792565b60405180910390fd5b80600560008573ffffffffffffffffffffffffffffffffffffffff1673ffffffffffffffffffffffffffffffffffffffff16815260200190815260200160002060008473ffffffffffffffffffffffffffffffffffffffff1673ffffffffffffffffffffffffffffffffffffffff16815260200190815260200160002060006101000a81548160ff0219169083151502179055508173ffffffffffffffffffffffffffffffffffffffff168373ffffffffffffffffffffffffffffffffffffffff167f17307eab39ab6107e8899845ad3d59bd9653f200f220920489ca2b5937696c3183604051612ec69190613b00565b60405180910390a3505050565b612ede848484612799565b612eea84848484613346565b612f29576040517f08c379a0000000000000000000000000000000000000000000000000000000008152600401612f2090615824565b60405180910390fd5b50505050565b606060006001612f3e846134cd565b01905060008167ffffffffffffffff811115612f5d57612f5c613e2c565b5b6040519080825280601f01601f191660200182016040528015612f8f5781602001600182028036833780820191505090505b509050600082602001820190505b600115612ff2578080600190039150507f3031323334353637383961626364656600000000000000000000000000000000600a86061a8153600a8581612fe657612fe5614d0a565b5b04945060008503612f9d575b819350505050919050565b80600d6000848152602001908152602001600020908161301d9190614b37565b505050565b60007f01ffc9a7000000000000000000000000000000000000000000000000000000007bffffffffffffffffffffffffffffffffffffffffffffffffffffffff1916827bffffffffffffffffffffffffffffffffffffffffffffffffffffffff1916149050919050565b6001816000016000828254019250508190555050565b6130ac8383613620565b6130b96000848484613346565b6130f8576040517f08c379a00000000000000000000000000000000000000000000000000000000081526004016130ef90615824565b60405180910390fd5b505050565b600181111561321d57600073ffffffffffffffffffffffffffffffffffffffff168473ffffffffffffffffffffffffffffffffffffffff16146131915780600360008673ffffffffffffffffffffffffffffffffffffffff1673ffffffffffffffffffffffffffffffffffffffff168152602001908152602001600020600082825461318991906149d1565b925050819055505b600073ffffffffffffffffffffffffffffffffffffffff168373ffffffffffffffffffffffffffffffffffffffff161461321c5780600360008573ffffffffffffffffffffffffffffffffffffffff1673ffffffffffffffffffffffffffffffffffffffff16815260200190815260200160002060008282546132149190614a05565b925050819055505b5b50505050565b50505050565b600061328b826040518060400160405280602081526020017f5361666545524332303a206c6f772d6c6576656c2063616c6c206661696c65648152508573ffffffffffffffffffffffffffffffffffffffff1661383d9092919063ffffffff16565b90506000815111156132eb57808060200190518101906132ab9190615859565b6132ea576040517f08c379a00000000000000000000000000000000000000000000000000000000081526004016132e1906158f8565b60405180910390fd5b5b505050565b60008082905060005b845181101561333b576133268286838151811061331957613318614e84565b5b6020026020010151613855565b9150808061333390614eb3565b9150506132f9565b508091505092915050565b60006133678473ffffffffffffffffffffffffffffffffffffffff16613880565b156134c0578373ffffffffffffffffffffffffffffffffffffffff1663150b7a02613390612525565b8786866040518563ffffffff1660e01b81526004016133b2949392919061596d565b6020604051808303816000875af19250505080156133ee57506040513d601f19601f820116820180604052508101906133eb91906159ce565b60015b613470573d806000811461341e576040519150601f19603f3d011682016040523d82523d6000602084013e613423565b606091505b506000815103613468576040517f08c379a000000000000000000000000000000000000000000000000000000000815260040161345f90615824565b60405180910390fd5b805181602001fd5b63150b7a0260e01b7bffffffffffffffffffffffffffffffffffffffffffffffffffffffff1916817bffffffffffffffffffffffffffffffffffffffffffffffffffffffff1916149150506134c5565b600190505b949350505050565b600080600090507a184f03e93ff9f4daa797ed6e38ed64bf6a1f010000000000000000831061352b577a184f03e93ff9f4daa797ed6e38ed64bf6a1f010000000000000000838161352157613520614d0a565b5b0492506040810190505b6d04ee2d6d415b85acef81000000008310613568576d04ee2d6d415b85acef8100000000838161355e5761355d614d0a565b5b0492506020810190505b662386f26fc10000831061359757662386f26fc10000838161358d5761358c614d0a565b5b0492506010810190505b6305f5e10083106135c0576305f5e10083816135b6576135b5614d0a565b5b0492506008810190505b61271083106135e55761271083816135db576135da614d0a565b5b0492506004810190505b6064831061360857606483816135fe576135fd614d0a565b5b0492506002810190505b600a8310613617576001810190505b80915050919050565b600073ffffffffffffffffffffffffffffffffffffffff168273ffffffffffffffffffffffffffffffffffffffff160361368f576040517f08c379a000000000000000000000000000000000000000000000000000000000815260040161368690615a47565b60405180910390fd5b61369881612a92565b156136d8576040517f08c379a00000000000000000000000000000000000000000000000000000000081526004016136cf90615ab3565b60405180910390fd5b6136e66000838360016130fd565b6136ef81612a92565b1561372f576040517f08c379a000000000000000000000000000000000000000000000000000000000815260040161372690615ab3565b60405180910390fd5b6001600360008473ffffffffffffffffffffffffffffffffffffffff1673ffffffffffffffffffffffffffffffffffffffff16815260200190815260200160002060008282540192505081905550816002600083815260200190815260200160002060006101000a81548173ffffffffffffffffffffffffffffffffffffffff021916908373ffffffffffffffffffffffffffffffffffffffff160217905550808273ffffffffffffffffffffffffffffffffffffffff16600073ffffffffffffffffffffffffffffffffffffffff167fddf252ad1be2c89b69c2b068fc378daa952ba7f163c4a11628f55a4df523b3ef60405160405180910390a4613839600083836001613223565b5050565b606061384c84846000856138a3565b90509392505050565b600081831061386d576138688284613970565b613878565b6138778383613970565b5b905092915050565b6000808273ffffffffffffffffffffffffffffffffffffffff163b119050919050565b6060824710156138e8576040517f08c379a00000000000000000000000000000000000000000000000000000000081526004016138df90615b45565b60405180910390fd5b6000808673ffffffffffffffffffffffffffffffffffffffff1685876040516139119190615b96565b60006040518083038185875af1925050503d806000811461394e576040519150601f19603f3d011682016040523d82523d6000602084013e613953565b606091505b509150915061396487838387613987565b92505050949350505050565b600082600052816020526040600020905092915050565b606083156139e95760008351036139e1576139a185613880565b6139e0576040517f08c379a00000000000000000000000000000000000000000000000000000000081526004016139d790615bf9565b60405180910390fd5b5b8290506139f4565b6139f383836139fc565b5b949350505050565b600082511115613a0f5781518083602001fd5b806040517f08c379a0000000000000000000000000000000000000000000000000000000008152600401613a439190613bab565b60405180910390fd5b6000604051905090565b600080fd5b600080fd5b60007fffffffff0000000000000000000000000000000000000000000000000000000082169050919050565b613a9581613a60565b8114613aa057600080fd5b50565b600081359050613ab281613a8c565b92915050565b600060208284031215613ace57613acd613a56565b5b6000613adc84828501613aa3565b91505092915050565b60008115159050919050565b613afa81613ae5565b82525050565b6000602082019050613b156000830184613af1565b92915050565b600081519050919050565b600082825260208201905092915050565b60005b83811015613b55578082015181840152602081019050613b3a565b60008484015250505050565b6000601f19601f8301169050919050565b6000613b7d82613b1b565b613b878185613b26565b9350613b97818560208601613b37565b613ba081613b61565b840191505092915050565b60006020820190508181036000830152613bc58184613b72565b905092915050565b6000819050919050565b613be081613bcd565b82525050565b6000602082019050613bfb6000830184613bd7565b92915050565b613c0a81613bcd565b8114613c1557600080fd5b50565b600081359050613c2781613c01565b92915050565b600060208284031215613c4357613c42613a56565b5b6000613c5184828501613c18565b91505092915050565b600073ffffffffffffffffffffffffffffffffffffffff82169050919050565b6000613c8582613c5a565b9050919050565b613c9581613c7a565b82525050565b6000602082019050613cb06000830184613c8c565b92915050565b613cbf81613c7a565b8114613cca57600080fd5b50565b600081359050613cdc81613cb6565b92915050565b60008060408385031215613cf957613cf8613a56565b5b6000613d0785828601613ccd565b9250506020613d1885828601613c18565b9150509250929050565b600080fd5b600080fd5b600080fd5b60008083601f840112613d4757613d46613d22565b5b8235905067ffffffffffffffff811115613d6457613d63613d27565b5b602083019150836001820283011115613d8057613d7f613d2c565b5b9250929050565b60008060208385031215613d9e57613d9d613a56565b5b600083013567ffffffffffffffff811115613dbc57613dbb613a5b565b5b613dc885828601613d31565b92509250509250929050565b600080600060608486031215613ded57613dec613a56565b5b6000613dfb86828701613ccd565b9350506020613e0c86828701613ccd565b9250506040613e1d86828701613c18565b9150509250925092565b600080fd5b7f4e487b7100000000000000000000000000000000000000000000000000000000600052604160045260246000fd5b613e6482613b61565b810181811067ffffffffffffffff82111715613e8357613e82613e2c565b5b80604052505050565b6000613e96613a4c565b9050613ea28282613e5b565b919050565b600067ffffffffffffffff821115613ec257613ec1613e2c565b5b613ecb82613b61565b9050602081019050919050565b82818337600083830152505050565b6000613efa613ef584613ea7565b613e8c565b905082815260208101848484011115613f1657613f15613e27565b5b613f21848285613ed8565b509392505050565b600082601f830112613f3e57613f3d613d22565b5b8135613f4e848260208601613ee7565b91505092915050565b600060208284031215613f6d57613f6c613a56565b5b600082013567ffffffffffffffff811115613f8b57613f8a613a5b565b5b613f9784828501613f29565b91505092915050565b60008060408385031215613fb757613fb6613a56565b5b6000613fc585828601613c18565b9250506020613fd685828601613c18565b9150509250929050565b6000604082019050613ff56000830185613c8c565b6140026020830184613bd7565b9392505050565b600080604083850312156140205761401f613a56565b5b600061402e85828601613ccd565b925050602061403f85828601613ccd565b9150509250929050565b60008083601f84011261405f5761405e613d22565b5b8235905067ffffffffffffffff81111561407c5761407b613d27565b5b60208301915083602082028301111561409857614097613d2c565b5b9250929050565b600080602083850312156140b6576140b5613a56565b5b600083013567ffffffffffffffff8111156140d4576140d3613a5b565b5b6140e085828601614049565b92509250509250929050565b60006140f782613c5a565b9050919050565b614107816140ec565b811461411257600080fd5b50565b600081359050614124816140fe565b92915050565b6000602082840312156141405761413f613a56565b5b600061414e84828501614115565b91505092915050565b7f4e487b7100000000000000000000000000000000000000000000000000000000600052602160045260246000fd5b6003811061419757614196614157565b5b50565b60008190506141a882614186565b919050565b60006141b88261419a565b9050919050565b6141c8816141ad565b82525050565b60006020820190506141e360008301846141bf565b92915050565b6000602082840312156141ff576141fe613a56565b5b600061420d84828501613ccd565b91505092915050565b60008083601f84011261422c5761422b613d22565b5b8235905067ffffffffffffffff81111561424957614248613d27565b5b60208301915083602082028301111561426557614264613d2c565b5b9250929050565b60008060006040848603121561428557614284613a56565b5b600061429386828701613c18565b935050602084013567ffffffffffffffff8111156142b4576142b3613a5b565b5b6142c086828701614216565b92509250509250925092565b6142d581613ae5565b81146142e057600080fd5b50565b6000813590506142f2816142cc565b92915050565b6000806040838503121561430f5761430e613a56565b5b600061431d85828601613ccd565b925050602061432e858286016142e3565b9150509250929050565b6000819050919050565b61434b81614338565b811461435657600080fd5b50565b60008135905061436881614342565b92915050565b60006020828403121561438457614383613a56565b5b600061439284828501614359565b91505092915050565b600067ffffffffffffffff8211156143b6576143b5613e2c565b5b6143bf82613b61565b9050602081019050919050565b60006143df6143da8461439b565b613e8c565b9050828152602081018484840111156143fb576143fa613e27565b5b614406848285613ed8565b509392505050565b600082601f83011261442357614422613d22565b5b81356144338482602086016143cc565b91505092915050565b6000806000806080858703121561445657614455613a56565b5b600061446487828801613ccd565b945050602061447587828801613ccd565b935050604061448687828801613c18565b925050606085013567ffffffffffffffff8111156144a7576144a6613a5b565b5b6144b38782880161440e565b91505092959194509250565b7f4e487b7100000000000000000000000000000000000000000000000000000000600052602260045260246000fd5b6000600282049050600182168061450657607f821691505b602082108103614519576145186144bf565b5b50919050565b7f4552433732313a20617070726f76616c20746f2063757272656e74206f776e6560008201527f7200000000000000000000000000000000000000000000000000000000000000602082015250565b600061457b602183613b26565b91506145868261451f565b604082019050919050565b600060208201905081810360008301526145aa8161456e565b9050919050565b7f4552433732313a20617070726f76652063616c6c6572206973206e6f7420746f60008201527f6b656e206f776e6572206f7220617070726f76656420666f7220616c6c000000602082015250565b600061460d603d83613b26565b9150614618826145b1565b604082019050919050565b6000602082019050818103600083015261463c81614600565b9050919050565b600082905092915050565b60008190508160005260206000209050919050565b60006020601f8301049050919050565b600082821b905092915050565b6000600883026146b07fffffffffffffffffffffffffffffffffffffffffffffffffffffffffffffffff82614673565b6146ba8683614673565b95508019841693508086168417925050509392505050565b6000819050919050565b60006146f76146f26146ed84613bcd565b6146d2565b613bcd565b9050919050565b6000819050919050565b614711836146dc565b61472561471d826146fe565b848454614680565b825550505050565b600090565b61473a61472d565b614745818484614708565b505050565b5b818110156147695761475e600082614732565b60018101905061474b565b5050565b601f8211156147ae5761477f8161464e565b61478884614663565b81016020851015614797578190505b6147ab6147a385614663565b83018261474a565b50505b505050565b600082821c905092915050565b60006147d1600019846008026147b3565b1980831691505092915050565b60006147ea83836147c0565b9150826002028217905092915050565b6148048383614643565b67ffffffffffffffff81111561481d5761481c613e2c565b5b61482782546144ee565b61483282828561476d565b6000601f831160018114614861576000841561484f578287013590505b61485985826147de565b8655506148c1565b601f19841661486f8661464e565b60005b8281101561489757848901358255600182019150602085019450602081019050614872565b868310156148b457848901356148b0601f8916826147c0565b8355505b6001600288020188555050505b50505050505050565b7f5075626c69632073616c65206973206e6f74206f70656e000000000000000000600082015250565b6000614900601783613b26565b915061490b826148ca565b602082019050919050565b6000602082019050818103600083015261492f816148f3565b9050919050565b7f496e636f7272656374204554482076616c75652073656e740000000000000000600082015250565b600061496c601883613b26565b915061497782614936565b602082019050919050565b6000602082019050818103600083015261499b8161495f565b9050919050565b7f4e487b7100000000000000000000000000000000000000000000000000000000600052601160045260246000fd5b60006149dc82613bcd565b91506149e783613bcd565b92508282039050818111156149ff576149fe6149a2565b5b92915050565b6000614a1082613bcd565b9150614a1b83613bcd565b9250828201905080821115614a3357614a326149a2565b5b92915050565b7f496e73756666696369656e7420746f6b656e732072656d61696e696e67000000600082015250565b6000614a6f601d83613b26565b9150614a7a82614a39565b602082019050919050565b60006020820190508181036000830152614a9e81614a62565b9050919050565b7f4552433732313a2063616c6c6572206973206e6f7420746f6b656e206f776e6560008201527f72206f7220617070726f76656400000000000000000000000000000000000000602082015250565b6000614b01602d83613b26565b9150614b0c82614aa5565b604082019050919050565b60006020820190508181036000830152614b3081614af4565b9050919050565b614b4082613b1b565b67ffffffffffffffff811115614b5957614b58613e2c565b5b614b6382546144ee565b614b6e82828561476d565b600060209050601f831160018114614ba15760008415614b8f578287015190505b614b9985826147de565b865550614c01565b601f198416614baf8661464e565b60005b82811015614bd757848901518255600182019150602085019450602081019050614bb2565b86831015614bf45784890151614bf0601f8916826147c0565b8355505b6001600288020188555050505b505050505050565b600081905092915050565b6000614c1f82613b1b565b614c298185614c09565b9350614c39818560208601613b37565b80840191505092915050565b6000614c518284614c14565b915081905092915050565b7f4e6f6e2d6578697374656e7420746f6b656e0000000000000000000000000000600082015250565b6000614c92601283613b26565b9150614c9d82614c5c565b602082019050919050565b60006020820190508181036000830152614cc181614c85565b9050919050565b6000614cd382613bcd565b9150614cde83613bcd565b9250828202614cec81613bcd565b91508282048414831517614d0357614d026149a2565b5b5092915050565b7f4e487b7100000000000000000000000000000000000000000000000000000000600052601260045260246000fd5b6000614d4482613bcd565b9150614d4f83613bcd565b925082614d5f57614d5e614d0a565b5b828204905092915050565b600081519050614d7981613c01565b92915050565b600060208284031215614d9557614d94613a56565b5b6000614da384828501614d6a565b91505092915050565b7f496e73756666696369656e7420746f6b656e2072657365727665000000000000600082015250565b6000614de2601a83613b26565b9150614ded82614dac565b602082019050919050565b60006020820190508181036000830152614e1181614dd5565b9050919050565b7f41646472657373657320617272617920656d7074790000000000000000000000600082015250565b6000614e4e601583613b26565b9150614e5982614e18565b602082019050919050565b60006020820190508181036000830152614e7d81614e41565b9050919050565b7f4e487b7100000000000000000000000000000000000000000000000000000000600052603260045260246000fd5b6000614ebe82613bcd565b91507fffffffffffffffffffffffffffffffffffffffffffffffffffffffffffffffff8203614ef057614eef6149a2565b5b600182019050919050565b600081905092915050565b6000819050919050565b614f1981613c7a565b82525050565b6000614f2b8383614f10565b60208301905092915050565b6000614f466020840184613ccd565b905092915050565b6000602082019050919050565b6000614f678385614efb565b9350614f7282614f06565b8060005b85811015614fab57614f888284614f37565b614f928882614f1f565b9750614f9d83614f4e565b925050600181019050614f76565b5085925050509392505050565b6000614fc5828486614f5b565b91508190509392505050565b7f4552433732313a20696e76616c696420746f6b656e2049440000000000000000600082015250565b6000615007601883613b26565b915061501282614fd1565b602082019050919050565b6000602082019050818103600083015261503681614ffa565b9050919050565b7f4552433732313a2061646472657373207a65726f206973206e6f74206120766160008201527f6c6964206f776e65720000000000000000000000000000000000000000000000602082015250565b6000615099602983613b26565b91506150a48261503d565b604082019050919050565b600060208201905081810360008301526150c88161508c565b9050919050565b7f5072652073616c65206973206e6f74206f70656e000000000000000000000000600082015250565b6000615105601483613b26565b9150615110826150cf565b602082019050919050565b60006020820190508181036000830152615134816150f8565b9050919050565b60008160601b9050919050565b60006151538261513b565b9050919050565b600061516582615148565b9050919050565b61517d61517882613c7a565b61515a565b82525050565b600061518f828461516c565b60148201915081905092915050565b7f41646472657373206e6f7420696e206c69737400000000000000000000000000600082015250565b60006151d4601383613b26565b91506151df8261519e565b602082019050919050565b60006020820190508181036000830152615203816151c7565b9050919050565b7f45786365656473207072652073616c65206d696e74206d6178206e756d626572600082015250565b6000615240602083613b26565b915061524b8261520a565b602082019050919050565b6000602082019050818103600083015261526f81615233565b9050919050565b60008154615283816144ee565b61528d8186614c09565b945060018216600081146152a857600181146152bd576152f0565b60ff19831686528115158202860193506152f0565b6152c68561464e565b60005b838110156152e8578154818901526001820191506020810190506152c9565b838801955050505b50505092915050565b7f2f00000000000000000000000000000000000000000000000000000000000000600082015250565b600061532f600183614c09565b915061533a826152f9565b600182019050919050565b60006153518285615276565b915061535c82615322565b91506153688284614c14565b91508190509392505050565b7f4f776e61626c653a206e6577206f776e657220697320746865207a65726f206160008201527f6464726573730000000000000000000000000000000000000000000000000000602082015250565b60006153d0602683613b26565b91506153db82615374565b604082019050919050565b600060208201905081810360008301526153ff816153c3565b9050919050565b7f4f776e61626c653a2063616c6c6572206973206e6f7420746865206f776e6572600082015250565b600061543c602083613b26565b915061544782615406565b602082019050919050565b6000602082019050818103600083015261546b8161542f565b9050919050565b7f5265656e7472616e637947756172643a207265656e7472616e742063616c6c00600082015250565b60006154a8601f83613b26565b91506154b382615472565b602082019050919050565b600060208201905081810360008301526154d78161549b565b9050919050565b7f4552433732313a207472616e736665722066726f6d20696e636f72726563742060008201527f6f776e6572000000000000000000000000000000000000000000000000000000602082015250565b600061553a602583613b26565b9150615545826154de565b604082019050919050565b600060208201905081810360008301526155698161552d565b9050919050565b7f4552433732313a207472616e7366657220746f20746865207a65726f2061646460008201527f7265737300000000000000000000000000000000000000000000000000000000602082015250565b60006155cc602483613b26565b91506155d782615570565b604082019050919050565b600060208201905081810360008301526155fb816155bf565b9050919050565b7f416464726573733a20696e73756666696369656e742062616c616e6365000000600082015250565b6000615638601d83613b26565b915061564382615602565b602082019050919050565b600060208201905081810360008301526156678161562b565b9050919050565b600081905092915050565b50565b600061568960008361566e565b915061569482615679565b600082019050919050565b60006156aa8261567c565b9150819050919050565b7f416464726573733a20756e61626c6520746f2073656e642076616c75652c207260008201527f6563697069656e74206d61792068617665207265766572746564000000000000602082015250565b6000615710603a83613b26565b915061571b826156b4565b604082019050919050565b6000602082019050818103600083015261573f81615703565b9050919050565b7f4552433732313a20617070726f766520746f2063616c6c657200000000000000600082015250565b600061577c601983613b26565b915061578782615746565b602082019050919050565b600060208201905081810360008301526157ab8161576f565b9050919050565b7f4552433732313a207472616e7366657220746f206e6f6e20455243373231526560008201527f63656976657220696d706c656d656e7465720000000000000000000000000000602082015250565b600061580e603283613b26565b9150615819826157b2565b604082019050919050565b6000602082019050818103600083015261583d81615801565b9050919050565b600081519050615853816142cc565b92915050565b60006020828403121561586f5761586e613a56565b5b600061587d84828501615844565b91505092915050565b7f5361666545524332303a204552433230206f7065726174696f6e20646964206e60008201527f6f74207375636365656400000000000000000000000000000000000000000000602082015250565b60006158e2602a83613b26565b91506158ed82615886565b604082019050919050565b60006020820190508181036000830152615911816158d5565b9050919050565b600081519050919050565b600082825260208201905092915050565b600061593f82615918565b6159498185615923565b9350615959818560208601613b37565b61596281613b61565b840191505092915050565b60006080820190506159826000830187613c8c565b61598f6020830186613c8c565b61599c6040830185613bd7565b81810360608301526159ae8184615934565b905095945050505050565b6000815190506159c881613a8c565b92915050565b6000602082840312156159e4576159e3613a56565b5b60006159f2848285016159b9565b91505092915050565b7f4552433732313a206d696e7420746f20746865207a65726f2061646472657373600082015250565b6000615a31602083613b26565b9150615a3c826159fb565b602082019050919050565b60006020820190508181036000830152615a6081615a24565b9050919050565b7f4552433732313a20746f6b656e20616c7265616479206d696e74656400000000600082015250565b6000615a9d601c83613b26565b9150615aa882615a67565b602082019050919050565b60006020820190508181036000830152615acc81615a90565b9050919050565b7f416464726573733a20696e73756666696369656e742062616c616e636520666f60008201527f722063616c6c0000000000000000000000000000000000000000000000000000602082015250565b6000615b2f602683613b26565b9150615b3a82615ad3565b604082019050919050565b60006020820190508181036000830152615b5e81615b22565b9050919050565b6000615b7082615918565b615b7a818561566e565b9350615b8a818560208601613b37565b80840191505092915050565b6000615ba28284615b65565b915081905092915050565b7f416464726573733a2063616c6c20746f206e6f6e2d636f6e7472616374000000600082015250565b6000615be3601d83613b26565b9150615bee82615bad565b602082019050919050565b60006020820190508181036000830152615c1281615bd6565b905091905056fea2646970667358221220d8a812a5ae3657a2d7611610a1086d0fa9826d2fbf186f20515631e82db365f864736f6c63430008110033",
  "linkReferences": {},
  "deployedLinkReferences": {}
}