{
  "_format": "hh-sol-artifact-1",
  "contractName": "NewNFT",
  "sourceName": "contracts/NewNFT.sol",
  "abi": [
    {
      "inputs": [
        {
          "internalType": "address",
          "name": "connectorAddress",
          "type": "address"
        },
        {
          "internalType": "address",
          "name": "zetaTokenAddress",
          "type": "address"
        },
        {
          "internalType": "address",
          "name": "zetaConsumerAddress",
          "type": "address"
        },
        {
          "internalType": "bool",
          "name": "useEven",
          "type": "bool"
        },
        {
          "internalType": "string",
          "name": "_name",
          "type": "string"
        },
        {
          "internalType": "string",
          "name": "_symbol",
          "type": "string"
        },
        {
          "internalType": "string",
          "name": "_baseURI",
          "type": "string"
        },
        {
          "internalType": "string",
          "name": "_collectionURI",
          "type": "string"
        },
        {
          "internalType": "uint256",
          "name": "_tokenSupply",
          "type": "uint256"
        }
      ],
      "stateMutability": "nonpayable",
      "type": "constructor"
    },
    {
      "inputs": [],
      "name": "ErrorApprovingZeta",
      "type": "error"
    },
    {
      "inputs": [],
      "name": "InvalidAddress",
      "type": "error"
    },
    {
      "inputs": [
        {
          "internalType": "address",
          "name": "caller",
          "type": "address"
        }
      ],
      "name": "InvalidCaller",
      "type": "error"
    },
    {
      "inputs": [],
      "name": "InvalidDestinationChainId",
      "type": "error"
    },
    {
      "inputs": [],
      "name": "InvalidMessageType",
      "type": "error"
    },
    {
      "inputs": [],
      "name": "InvalidTransferCaller",
      "type": "error"
    },
    {
      "inputs": [],
      "name": "InvalidZetaMessageCall",
      "type": "error"
    },
    {
      "inputs": [],
      "name": "InvalidZetaRevertCall",
      "type": "error"
    },
    {
      "anonymous": false,
      "inputs": [
        {
          "indexed": true,
          "internalType": "address",
          "name": "owner",
          "type": "address"
        },
        {
          "indexed": true,
          "internalType": "address",
          "name": "approved",
          "type": "address"
        },
        {
          "indexed": true,
          "internalType": "uint256",
          "name": "tokenId",
          "type": "uint256"
        }
      ],
      "name": "Approval",
      "type": "event"
    },
    {
      "anonymous": false,
      "inputs": [
        {
          "indexed": true,
          "internalType": "address",
          "name": "owner",
          "type": "address"
        },
        {
          "indexed": true,
          "internalType": "address",
          "name": "operator",
          "type": "address"
        },
        {
          "indexed": false,
          "internalType": "bool",
          "name": "approved",
          "type": "bool"
        }
      ],
      "name": "ApprovalForAll",
      "type": "event"
    },
    {
      "anonymous": false,
      "inputs": [
        {
          "indexed": true,
          "internalType": "address",
          "name": "minter",
          "type": "address"
        }
      ],
      "name": "Mint",
      "type": "event"
    },
    {
      "anonymous": false,
      "inputs": [
        {
          "indexed": true,
          "internalType": "address",
          "name": "previousOwner",
          "type": "address"
        },
        {
          "indexed": true,
          "internalType": "address",
          "name": "newOwner",
          "type": "address"
        }
      ],
      "name": "OwnershipTransferStarted",
      "type": "event"
    },
    {
      "anonymous": false,
      "inputs": [
        {
          "indexed": true,
          "internalType": "address",
          "name": "previousOwner",
          "type": "address"
        },
        {
          "indexed": true,
          "internalType": "address",
          "name": "newOwner",
          "type": "address"
        }
      ],
      "name": "OwnershipTransferred",
      "type": "event"
    },
    {
      "anonymous": false,
      "inputs": [
        {
          "indexed": true,
          "internalType": "string",
          "name": "uri",
          "type": "string"
        }
      ],
      "name": "SetBaseURI",
      "type": "event"
    },
    {
      "anonymous": false,
      "inputs": [
        {
          "indexed": true,
          "internalType": "string",
          "name": "uri",
          "type": "string"
        }
      ],
      "name": "SetCollectionURI",
      "type": "event"
    },
    {
      "anonymous": false,
      "inputs": [
        {
          "indexed": true,
          "internalType": "address",
          "name": "from",
          "type": "address"
        },
        {
          "indexed": true,
          "internalType": "address",
          "name": "to",
          "type": "address"
        },
        {
          "indexed": true,
          "internalType": "uint256",
          "name": "tokenId",
          "type": "uint256"
        }
      ],
      "name": "Transfer",
      "type": "event"
    },
    {
      "inputs": [],
      "name": "CROSS_CHAIN_TRANSFER_MESSAGE",
      "outputs": [
        {
          "internalType": "bytes32",
          "name": "",
          "type": "bytes32"
        }
      ],
      "stateMutability": "view",
      "type": "function"
    },
    {
      "inputs": [],
      "name": "MAX_TOTAL_SUPPLY",
      "outputs": [
        {
          "internalType": "uint256",
          "name": "",
          "type": "uint256"
        }
      ],
      "stateMutability": "view",
      "type": "function"
    },
    {
      "inputs": [],
      "name": "acceptOwnership",
      "outputs": [],
      "stateMutability": "nonpayable",
      "type": "function"
    },
    {
      "inputs": [
        {
          "internalType": "address",
          "name": "to",
          "type": "address"
        },
        {
          "internalType": "uint256",
          "name": "tokenId",
          "type": "uint256"
        }
      ],
      "name": "approve",
      "outputs": [],
      "stateMutability": "nonpayable",
      "type": "function"
    },
    {
      "inputs": [
        {
          "internalType": "address",
          "name": "owner",
          "type": "address"
        }
      ],
      "name": "balanceOf",
      "outputs": [
        {
          "internalType": "uint256",
          "name": "",
          "type": "uint256"
        }
      ],
      "stateMutability": "view",
      "type": "function"
    },
    {
      "inputs": [],
      "name": "baseURI",
      "outputs": [
        {
          "internalType": "string",
          "name": "",
          "type": "string"
        }
      ],
      "stateMutability": "view",
      "type": "function"
    },
    {
      "inputs": [],
      "name": "connector",
      "outputs": [
        {
          "internalType": "contract ZetaConnector",
          "name": "",
          "type": "address"
        }
      ],
      "stateMutability": "view",
      "type": "function"
    },
    {
      "inputs": [],
      "name": "contractURI",
      "outputs": [
        {
          "internalType": "string",
          "name": "",
          "type": "string"
        }
      ],
      "stateMutability": "view",
      "type": "function"
    },
    {
      "inputs": [
        {
          "internalType": "uint256",
          "name": "crossChainId",
          "type": "uint256"
        },
        {
          "internalType": "address",
          "name": "to",
          "type": "address"
        },
        {
          "internalType": "uint256",
          "name": "tokenId",
          "type": "uint256"
        }
      ],
      "name": "crossChainTransfer",
      "outputs": [],
      "stateMutability": "payable",
      "type": "function"
    },
    {
      "inputs": [
        {
          "internalType": "uint256",
          "name": "tokenId",
          "type": "uint256"
        }
      ],
      "name": "getApproved",
      "outputs": [
        {
          "internalType": "address",
          "name": "",
          "type": "address"
        }
      ],
      "stateMutability": "view",
      "type": "function"
    },
    {
      "inputs": [],
      "name": "getBaseURI",
      "outputs": [
        {
          "internalType": "string",
          "name": "",
          "type": "string"
        }
      ],
      "stateMutability": "view",
      "type": "function"
    },
    {
      "inputs": [],
      "name": "getLastTokenId",
      "outputs": [
        {
          "internalType": "uint256",
          "name": "",
          "type": "uint256"
        }
      ],
      "stateMutability": "view",
      "type": "function"
    },
    {
      "inputs": [
        {
          "internalType": "uint256",
          "name": "",
          "type": "uint256"
        }
      ],
      "name": "interactorsByChainId",
      "outputs": [
        {
          "internalType": "bytes",
          "name": "",
          "type": "bytes"
        }
      ],
      "stateMutability": "view",
      "type": "function"
    },
    {
      "inputs": [
        {
          "internalType": "address",
          "name": "owner",
          "type": "address"
        },
        {
          "internalType": "address",
          "name": "operator",
          "type": "address"
        }
      ],
      "name": "isApprovedForAll",
      "outputs": [
        {
          "internalType": "bool",
          "name": "",
          "type": "bool"
        }
      ],
      "stateMutability": "view",
      "type": "function"
    },
    {
      "inputs": [],
      "name": "mint",
      "outputs": [],
      "stateMutability": "nonpayable",
      "type": "function"
    },
    {
      "inputs": [],
      "name": "name",
      "outputs": [
        {
          "internalType": "string",
          "name": "",
          "type": "string"
        }
      ],
      "stateMutability": "view",
      "type": "function"
    },
    {
      "inputs": [
        {
          "components": [
            {
              "internalType": "bytes",
              "name": "zetaTxSenderAddress",
              "type": "bytes"
            },
            {
              "internalType": "uint256",
              "name": "sourceChainId",
              "type": "uint256"
            },
            {
              "internalType": "address",
              "name": "destinationAddress",
              "type": "address"
            },
            {
              "internalType": "uint256",
              "name": "zetaValue",
              "type": "uint256"
            },
            {
              "internalType": "bytes",
              "name": "message",
              "type": "bytes"
            }
          ],
          "internalType": "struct ZetaInterfaces.ZetaMessage",
          "name": "zetaMessage",
          "type": "tuple"
        }
      ],
      "name": "onZetaMessage",
      "outputs": [],
      "stateMutability": "nonpayable",
      "type": "function"
    },
    {
      "inputs": [
        {
          "components": [
            {
              "internalType": "address",
              "name": "zetaTxSenderAddress",
              "type": "address"
            },
            {
              "internalType": "uint256",
              "name": "sourceChainId",
              "type": "uint256"
            },
            {
              "internalType": "bytes",
              "name": "destinationAddress",
              "type": "bytes"
            },
            {
              "internalType": "uint256",
              "name": "destinationChainId",
              "type": "uint256"
            },
            {
              "internalType": "uint256",
              "name": "remainingZetaValue",
              "type": "uint256"
            },
            {
              "internalType": "bytes",
              "name": "message",
              "type": "bytes"
            }
          ],
          "internalType": "struct ZetaInterfaces.ZetaRevert",
          "name": "zetaRevert",
          "type": "tuple"
        }
      ],
      "name": "onZetaRevert",
      "outputs": [],
      "stateMutability": "nonpayable",
      "type": "function"
    },
    {
      "inputs": [],
      "name": "owner",
      "outputs": [
        {
          "internalType": "address",
          "name": "",
          "type": "address"
        }
      ],
      "stateMutability": "view",
      "type": "function"
    },
    {
      "inputs": [
        {
          "internalType": "uint256",
          "name": "tokenId",
          "type": "uint256"
        }
      ],
      "name": "ownerOf",
      "outputs": [
        {
          "internalType": "address",
          "name": "",
          "type": "address"
        }
      ],
      "stateMutability": "view",
      "type": "function"
    },
    {
      "inputs": [],
      "name": "pendingOwner",
      "outputs": [
        {
          "internalType": "address",
          "name": "",
          "type": "address"
        }
      ],
      "stateMutability": "view",
      "type": "function"
    },
    {
      "inputs": [],
      "name": "renounceOwnership",
      "outputs": [],
      "stateMutability": "nonpayable",
      "type": "function"
    },
    {
      "inputs": [
        {
          "internalType": "address",
          "name": "from",
          "type": "address"
        },
        {
          "internalType": "address",
          "name": "to",
          "type": "address"
        },
        {
          "internalType": "uint256",
          "name": "tokenId",
          "type": "uint256"
        }
      ],
      "name": "safeTransferFrom",
      "outputs": [],
      "stateMutability": "nonpayable",
      "type": "function"
    },
    {
      "inputs": [
        {
          "internalType": "address",
          "name": "from",
          "type": "address"
        },
        {
          "internalType": "address",
          "name": "to",
          "type": "address"
        },
        {
          "internalType": "uint256",
          "name": "tokenId",
          "type": "uint256"
        },
        {
          "internalType": "bytes",
          "name": "data",
          "type": "bytes"
        }
      ],
      "name": "safeTransferFrom",
      "outputs": [],
      "stateMutability": "nonpayable",
      "type": "function"
    },
    {
      "inputs": [
        {
          "internalType": "address",
          "name": "operator",
          "type": "address"
        },
        {
          "internalType": "bool",
          "name": "approved",
          "type": "bool"
        }
      ],
      "name": "setApprovalForAll",
      "outputs": [],
      "stateMutability": "nonpayable",
      "type": "function"
    },
    {
      "inputs": [
        {
          "internalType": "string",
          "name": "newbaseURI",
          "type": "string"
        }
      ],
      "name": "setBaseURI",
      "outputs": [],
      "stateMutability": "nonpayable",
      "type": "function"
    },
    {
      "inputs": [
        {
          "internalType": "string",
          "name": "_collectionURI",
          "type": "string"
        }
      ],
      "name": "setCollectionURI",
      "outputs": [],
      "stateMutability": "nonpayable",
      "type": "function"
    },
    {
      "inputs": [
        {
          "internalType": "uint256",
          "name": "destinationChainId",
          "type": "uint256"
        },
        {
          "internalType": "bytes",
          "name": "contractAddress",
          "type": "bytes"
        }
      ],
      "name": "setInteractorByChainId",
      "outputs": [],
      "stateMutability": "nonpayable",
      "type": "function"
    },
    {
      "inputs": [
        {
          "internalType": "bytes4",
          "name": "interfaceId",
          "type": "bytes4"
        }
      ],
      "name": "supportsInterface",
      "outputs": [
        {
          "internalType": "bool",
          "name": "",
          "type": "bool"
        }
      ],
      "stateMutability": "view",
      "type": "function"
    },
    {
      "inputs": [],
      "name": "symbol",
      "outputs": [
        {
          "internalType": "string",
          "name": "",
          "type": "string"
        }
      ],
      "stateMutability": "view",
      "type": "function"
    },
    {
      "inputs": [],
      "name": "tokenIds",
      "outputs": [
        {
          "internalType": "uint256",
          "name": "_value",
          "type": "uint256"
        }
      ],
      "stateMutability": "view",
      "type": "function"
    },
    {
      "inputs": [
        {
          "internalType": "uint256",
          "name": "tokenId",
          "type": "uint256"
        }
      ],
      "name": "tokenURI",
      "outputs": [
        {
          "internalType": "string",
          "name": "",
          "type": "string"
        }
      ],
      "stateMutability": "view",
      "type": "function"
    },
    {
      "inputs": [
        {
          "internalType": "address",
          "name": "from",
          "type": "address"
        },
        {
          "internalType": "address",
          "name": "to",
          "type": "address"
        },
        {
          "internalType": "uint256",
          "name": "tokenId",
          "type": "uint256"
        }
      ],
      "name": "transferFrom",
      "outputs": [],
      "stateMutability": "nonpayable",
      "type": "function"
    },
    {
      "inputs": [
        {
          "internalType": "address",
          "name": "newOwner",
          "type": "address"
        }
      ],
      "name": "transferOwnership",
      "outputs": [],
      "stateMutability": "nonpayable",
      "type": "function"
    }
  ],
  "bytecode": "0x6101206040523480156200001257600080fd5b5060405162004f3438038062004f3483398181016040528101906200003891906200046e565b888585816000908051906020019062000053929190620002fb565b5080600190805190602001906200006c929190620002fb565b5050506200008f62000083620001ef60201b60201c565b620001f760201b60201c565b600073ffffffffffffffffffffffffffffffffffffffff168173ffffffffffffffffffffffffffffffffffffffff161415620000f7576040517fe6c4247b00000000000000000000000000000000000000000000000000000000815260040160405180910390fd5b46608081815250508073ffffffffffffffffffffffffffffffffffffffff1660a08173ffffffffffffffffffffffffffffffffffffffff1660601b81525050508773ffffffffffffffffffffffffffffffffffffffff1660c08173ffffffffffffffffffffffffffffffffffffffff1660601b815250508673ffffffffffffffffffffffffffffffffffffffff1660e08173ffffffffffffffffffffffffffffffffffffffff1660601b8152505080610100818152505081600a9080519060200190620001c6929190620002fb565b508260099080519060200190620001df929190620002fb565b50505050505050505050620007e5565b600033905090565b600760006101000a81549073ffffffffffffffffffffffffffffffffffffffff021916905562000232816200023560201b62001b3e1760201c565b50565b6000600660009054906101000a900473ffffffffffffffffffffffffffffffffffffffff16905081600660006101000a81548173ffffffffffffffffffffffffffffffffffffffff021916908373ffffffffffffffffffffffffffffffffffffffff1602179055508173ffffffffffffffffffffffffffffffffffffffff168173ffffffffffffffffffffffffffffffffffffffff167f8be0079c531659141344cd1fd0a4f28419497f9722a3daafe3b4186f6b6457e060405160405180910390a35050565b8280546200030990620006a8565b90600052602060002090601f0160209004810192826200032d576000855562000379565b82601f106200034857805160ff191683800117855562000379565b8280016001018555821562000379579182015b82811115620003785782518255916020019190600101906200035b565b5b5090506200038891906200038c565b5090565b5b80821115620003a75760008160009055506001016200038d565b5090565b6000620003c2620003bc84620005f2565b620005c9565b905082815260208101848484011115620003e157620003e062000777565b5b620003ee84828562000672565b509392505050565b600081519050620004078162000797565b92915050565b6000815190506200041e81620007b1565b92915050565b600082601f8301126200043c576200043b62000772565b5b81516200044e848260208601620003ab565b91505092915050565b6000815190506200046881620007cb565b92915050565b60008060008060008060008060006101208a8c03121562000494576200049362000781565b5b6000620004a48c828d01620003f6565b9950506020620004b78c828d01620003f6565b9850506040620004ca8c828d01620003f6565b9750506060620004dd8c828d016200040d565b96505060808a015167ffffffffffffffff8111156200050157620005006200077c565b5b6200050f8c828d0162000424565b95505060a08a015167ffffffffffffffff8111156200053357620005326200077c565b5b620005418c828d0162000424565b94505060c08a015167ffffffffffffffff8111156200056557620005646200077c565b5b620005738c828d0162000424565b93505060e08a015167ffffffffffffffff8111156200059757620005966200077c565b5b620005a58c828d0162000424565b925050610100620005b98c828d0162000457565b9150509295985092959850929598565b6000620005d5620005e8565b9050620005e38282620006de565b919050565b6000604051905090565b600067ffffffffffffffff82111562000610576200060f62000743565b5b6200061b8262000786565b9050602081019050919050565b6000620006358262000648565b9050919050565b60008115159050919050565b600073ffffffffffffffffffffffffffffffffffffffff82169050919050565b6000819050919050565b60005b838110156200069257808201518184015260208101905062000675565b83811115620006a2576000848401525b50505050565b60006002820490506001821680620006c157607f821691505b60208210811415620006d857620006d762000714565b5b50919050565b620006e98262000786565b810181811067ffffffffffffffff821117156200070b576200070a62000743565b5b80604052505050565b7f4e487b7100000000000000000000000000000000000000000000000000000000600052602260045260246000fd5b7f4e487b7100000000000000000000000000000000000000000000000000000000600052604160045260246000fd5b600080fd5b600080fd5b600080fd5b600080fd5b6000601f19601f8301169050919050565b620007a28162000628565b8114620007ae57600080fd5b50565b620007bc816200063c565b8114620007c857600080fd5b50565b620007d68162000668565b8114620007e257600080fd5b50565b60805160a05160601c60c05160601c60e05160601c610100516146ec620008486000396000610c89015260006117fb015260006118ab015260008181611312015281816118e70152818161198201526121c201526000610e5201526146ec6000f3fe6080604052600436106101f95760003560e01c806370a082311161010d57806395d89b41116100a0578063e30c39781161006f578063e30c3978146106f9578063e8a3d48514610724578063e985e9c51461074f578063f2fde38b1461078c578063f6e7393c146107b5576101f9565b806395d89b411461063f578063a22cb4651461066a578063b88d4fde14610693578063c87b56dd146106bc576101f9565b806379ba5097116100dc57806379ba5097146105a757806383c4c00d146105be57806383f3084f146105e95780638da5cb5b14610614576101f9565b806370a08231146104fd578063714c53981461053a578063714cff5614610565578063715018a614610590576101f9565b80632639f4601161019057806342842e0e1161015f57806342842e0e1461041a5780634fd3f7d71461044357806355f804b31461046c5780636352211e146104955780636c0360eb146104d2576101f9565b80632639f4601461037457806333039d3d1461039d5780633749c51a146103c85780633ff0693c146103f1576101f9565b80631249c58b116101cc5780631249c58b146102cc5780631c639dbe146102e357806323b872dd1461030e5780632618143f14610337576101f9565b806301ffc9a7146101fe57806306fdde031461023b578063081812fc14610266578063095ea7b3146102a3575b600080fd5b34801561020a57600080fd5b506102256004803603810190610220919061339a565b6107d1565b6040516102329190613c0d565b60405180910390f35b34801561024757600080fd5b506102506108b3565b60405161025d9190613cc5565b60405180910390f35b34801561027257600080fd5b5061028d600480360381019061028891906134cf565b610945565b60405161029a9190613b7d565b60405180910390f35b3480156102af57600080fd5b506102ca60048036038101906102c59190613273565b61098b565b005b3480156102d857600080fd5b506102e1610aa3565b005b3480156102ef57600080fd5b506102f8610aff565b6040516103059190613c28565b60405180910390f35b34801561031a57600080fd5b506103356004803603810190610330919061315d565b610b23565b005b34801561034357600080fd5b5061035e600480360381019061035991906134cf565b610b83565b60405161036b9190613c88565b60405180910390f35b34801561038057600080fd5b5061039b600480360381019061039691906133f4565b610c23565b005b3480156103a957600080fd5b506103b2610c87565b6040516103bf9190613ec9565b60405180910390f35b3480156103d457600080fd5b506103ef60048036038101906103ea919061343d565b610cab565b005b3480156103fd57600080fd5b5061041860048036038101906104139190613486565b610dd0565b005b34801561042657600080fd5b50610441600480360381019061043c919061315d565b610f3f565b005b34801561044f57600080fd5b5061046a6004803603810190610465919061357c565b610f5f565b005b34801561047857600080fd5b50610493600480360381019061048e91906133f4565b610f8f565b005b3480156104a157600080fd5b506104bc60048036038101906104b791906134cf565b610ff3565b6040516104c99190613b7d565b60405180910390f35b3480156104de57600080fd5b506104e761107a565b6040516104f49190613cc5565b60405180910390f35b34801561050957600080fd5b50610524600480360381019061051f91906130f0565b611108565b6040516105319190613ec9565b60405180910390f35b34801561054657600080fd5b5061054f6111c0565b60405161055c9190613cc5565b60405180910390f35b34801561057157600080fd5b5061057a611252565b6040516105879190613ec9565b60405180910390f35b34801561059c57600080fd5b506105a561125e565b005b3480156105b357600080fd5b506105bc611272565b005b3480156105ca57600080fd5b506105d36112ff565b6040516105e09190613ec9565b60405180910390f35b3480156105f557600080fd5b506105fe611310565b60405161060b9190613caa565b60405180910390f35b34801561062057600080fd5b50610629611334565b6040516106369190613b7d565b60405180910390f35b34801561064b57600080fd5b5061065461135e565b6040516106619190613cc5565b60405180910390f35b34801561067657600080fd5b50610691600480360381019061068c9190613233565b6113f0565b005b34801561069f57600080fd5b506106ba60048036038101906106b591906131b0565b611406565b005b3480156106c857600080fd5b506106e360048036038101906106de91906134cf565b611468565b6040516106f09190613cc5565b60405180910390f35b34801561070557600080fd5b5061070e611567565b60405161071b9190613b7d565b60405180910390f35b34801561073057600080fd5b50610739611591565b6040516107469190613cc5565b60405180910390f35b34801561075b57600080fd5b506107766004803603810190610771919061311d565b611623565b6040516107839190613c0d565b60405180910390f35b34801561079857600080fd5b506107b360048036038101906107ae91906130f0565b6116b7565b005b6107cf60048036038101906107ca9190613529565b611764565b005b60007f80ac58cd000000000000000000000000000000000000000000000000000000007bffffffffffffffffffffffffffffffffffffffffffffffffffffffff1916827bffffffffffffffffffffffffffffffffffffffffffffffffffffffff1916148061089c57507f5b5e139f000000000000000000000000000000000000000000000000000000007bffffffffffffffffffffffffffffffffffffffffffffffffffffffff1916827bffffffffffffffffffffffffffffffffffffffffffffffffffffffff1916145b806108ac57506108ab82611c04565b5b9050919050565b6060600080546108c29061415f565b80601f01602080910402602001604051908101604052809291908181526020018280546108ee9061415f565b801561093b5780601f106109105761010080835404028352916020019161093b565b820191906000526020600020905b81548152906001019060200180831161091e57829003601f168201915b5050505050905090565b600061095082611c6e565b6004600083815260200190815260200160002060009054906101000a900473ffffffffffffffffffffffffffffffffffffffff169050919050565b600061099682610ff3565b90508073ffffffffffffffffffffffffffffffffffffffff168373ffffffffffffffffffffffffffffffffffffffff161415610a07576040517f08c379a00000000000000000000000000000000000000000000000000000000081526004016109fe90613e47565b60405180910390fd5b8073ffffffffffffffffffffffffffffffffffffffff16610a26611cb9565b73ffffffffffffffffffffffffffffffffffffffff161480610a555750610a5481610a4f611cb9565b611623565b5b610a94576040517f08c379a0000000000000000000000000000000000000000000000000000000008152600401610a8b90613e87565b60405180910390fd5b610a9e8383611cc1565b505050565b6000610aad611d7a565b9050610ab93382611d95565b3373ffffffffffffffffffffffffffffffffffffffff167f3c3284d117c92d0b1699230960384e794dcba184cc48ff114fe4fed20c9b056560405160405180910390a250565b7f0cf763a152a14efd7f9d26f207a366a5611e6d260189ea570f82ea587843a9c081565b610b34610b2e611cb9565b82611db3565b610b73576040517f08c379a0000000000000000000000000000000000000000000000000000000008152600401610b6a90613ce7565b60405180910390fd5b610b7e838383611e48565b505050565b60086020528060005260406000206000915090508054610ba29061415f565b80601f0160208091040260200160405190810160405280929190818152602001828054610bce9061415f565b8015610c1b5780601f10610bf057610100808354040283529160200191610c1b565b820191906000526020600020905b815481529060010190602001808311610bfe57829003601f168201915b505050505081565b610c2b612142565b80600a9080519060200190610c41929190612d96565b5080604051610c509190613b2c565b60405180910390207ff88079580916acca3afc2e0f6ce909bab62d70f38e856286ffd15925be4fd9cc60405160405180910390a250565b7f000000000000000000000000000000000000000000000000000000000000000081565b80610cb46121c0565b6008600082602001358152602001908152602001600020604051610cd89190613b15565b6040518091039020818060000190610cf09190613ee4565b604051610cfe929190613afc565b604051809103902014610d3d576040517fb473eb0a00000000000000000000000000000000000000000000000000000000815260040160405180910390fd5b6000806000848060800190610d529190613ee4565b810190610d5f9190613333565b935050925092507f0cf763a152a14efd7f9d26f207a366a5611e6d260189ea570f82ea587843a9c08314610dbf576040517f5b60892f00000000000000000000000000000000000000000000000000000000815260040160405180910390fd5b610dc98183612252565b5050505050565b80610dd96121c0565b3073ffffffffffffffffffffffffffffffffffffffff16816000016020810190610e0391906130f0565b73ffffffffffffffffffffffffffffffffffffffff1614610e50576040517fc03e9c3f00000000000000000000000000000000000000000000000000000000815260040160405180910390fd5b7f0000000000000000000000000000000000000000000000000000000000000000816020013514610ead576040517fc03e9c3f00000000000000000000000000000000000000000000000000000000815260040160405180910390fd5b6000806000848060a00190610ec29190613ee4565b810190610ecf91906132e0565b9250925092507f0cf763a152a14efd7f9d26f207a366a5611e6d260189ea570f82ea587843a9c08314610f2e576040517f5b60892f00000000000000000000000000000000000000000000000000000000815260040160405180910390fd5b610f388183612252565b5050505050565b610f5a83838360405180602001604052806000815250611406565b505050565b610f67612142565b8181600860008681526020019081526020016000209190610f89929190612e1c565b50505050565b610f97612142565b8060099080519060200190610fad929190612d96565b5080604051610fbc9190613b2c565b60405180910390207f23c8c9488efebfd474e85a7956de6f39b17c7ab88502d42a623db2d8e382bbaa60405160405180910390a250565b600080610fff83612283565b9050600073ffffffffffffffffffffffffffffffffffffffff168173ffffffffffffffffffffffffffffffffffffffff161415611071576040517f08c379a000000000000000000000000000000000000000000000000000000000815260040161106890613e27565b60405180910390fd5b80915050919050565b600980546110879061415f565b80601f01602080910402602001604051908101604052809291908181526020018280546110b39061415f565b80156111005780601f106110d557610100808354040283529160200191611100565b820191906000526020600020905b8154815290600101906020018083116110e357829003601f168201915b505050505081565b60008073ffffffffffffffffffffffffffffffffffffffff168273ffffffffffffffffffffffffffffffffffffffff161415611179576040517f08c379a000000000000000000000000000000000000000000000000000000000815260040161117090613dc7565b60405180910390fd5b600360008373ffffffffffffffffffffffffffffffffffffffff1673ffffffffffffffffffffffffffffffffffffffff168152602001908152602001600020549050919050565b6060600980546111cf9061415f565b80601f01602080910402602001604051908101604052809291908181526020018280546111fb9061415f565b80156112485780601f1061121d57610100808354040283529160200191611248565b820191906000526020600020905b81548152906001019060200180831161122b57829003601f168201915b5050505050905090565b600c8060000154905081565b611266612142565b61127060006122c0565b565b600061127c611cb9565b90508073ffffffffffffffffffffffffffffffffffffffff1661129d611567565b73ffffffffffffffffffffffffffffffffffffffff16146112f3576040517f08c379a00000000000000000000000000000000000000000000000000000000081526004016112ea90613d27565b60405180910390fd5b6112fc816122c0565b50565b600061130b600c6122f1565b905090565b7f000000000000000000000000000000000000000000000000000000000000000081565b6000600660009054906101000a900473ffffffffffffffffffffffffffffffffffffffff16905090565b60606001805461136d9061415f565b80601f01602080910402602001604051908101604052809291908181526020018280546113999061415f565b80156113e65780601f106113bb576101008083540402835291602001916113e6565b820191906000526020600020905b8154815290600101906020018083116113c957829003601f168201915b5050505050905090565b6114026113fb611cb9565b83836122ff565b5050565b611417611411611cb9565b83611db3565b611456576040517f08c379a000000000000000000000000000000000000000000000000000000000815260040161144d90613ce7565b60405180910390fd5b6114628484848461246c565b50505050565b60606000600b6000848152602001908152602001600020805461148a9061415f565b90501461153457600b600083815260200190815260200160002080546114af9061415f565b80601f01602080910402602001604051908101604052809291908181526020018280546114db9061415f565b80156115285780601f106114fd57610100808354040283529160200191611528565b820191906000526020600020905b81548152906001019060200180831161150b57829003601f168201915b50505050509050611562565b600961153f836124c8565b604051602001611550929190613b43565b60405160208183030381529060405290505b919050565b6000600760009054906101000a900473ffffffffffffffffffffffffffffffffffffffff16905090565b6060600a80546115a09061415f565b80601f01602080910402602001604051908101604052809291908181526020018280546115cc9061415f565b80156116195780601f106115ee57610100808354040283529160200191611619565b820191906000526020600020905b8154815290600101906020018083116115fc57829003601f168201915b5050505050905090565b6000600560008473ffffffffffffffffffffffffffffffffffffffff1673ffffffffffffffffffffffffffffffffffffffff16815260200190815260200160002060008373ffffffffffffffffffffffffffffffffffffffff1673ffffffffffffffffffffffffffffffffffffffff16815260200190815260200160002060009054906101000a900460ff16905092915050565b6116bf612142565b80600760006101000a81548173ffffffffffffffffffffffffffffffffffffffff021916908373ffffffffffffffffffffffffffffffffffffffff1602179055508073ffffffffffffffffffffffffffffffffffffffff1661171f611334565b73ffffffffffffffffffffffffffffffffffffffff167f38d16b8cac22d99fc7c124b9cd0de2d3fa1faef420bfe791d8c362d765e2270060405160405180910390a350565b61176d836125a0565b6117a3576040517f90eaaa7000000000000000000000000000000000000000000000000000000000815260040160405180910390fd5b6117b46117ae611cb9565b82611db3565b6117ea576040517fd2ec845c00000000000000000000000000000000000000000000000000000000815260040160405180910390fd5b600067f9ccd8a1c5080000905060007f000000000000000000000000000000000000000000000000000000000000000073ffffffffffffffffffffffffffffffffffffffff1663013b2ff83430856040518463ffffffff1660e01b8152600401611855929190613be4565b6020604051808303818588803b15801561186e57600080fd5b505af1158015611882573d6000803e3d6000fd5b50505050506040513d601f19601f820116820180604052508101906118a791906134fc565b90507f000000000000000000000000000000000000000000000000000000000000000073ffffffffffffffffffffffffffffffffffffffff1663095ea7b37f0000000000000000000000000000000000000000000000000000000000000000836040518363ffffffff1660e01b8152600401611924929190613be4565b602060405180830381600087803b15801561193e57600080fd5b505af1158015611952573d6000803e3d6000fd5b505050506040513d601f19601f8201168201806040525081019061197691906132b3565b5061198083612627565b7f000000000000000000000000000000000000000000000000000000000000000073ffffffffffffffffffffffffffffffffffffffff1663ec0269016040518060c00160405280888152602001600860008a815260200190815260200160002080546119eb9061415f565b80601f0160208091040260200160405190810160405280929190818152602001828054611a179061415f565b8015611a645780601f10611a3957610100808354040283529160200191611a64565b820191906000526020600020905b815481529060010190602001808311611a4757829003601f168201915b505050505081526020016207a12081526020017f0cf763a152a14efd7f9d26f207a366a5611e6d260189ea570f82ea587843a9c087338a604051602001611aae9493929190613c43565b6040516020818303038152906040528152602001848152602001604051602001611ad790613e67565b6040516020818303038152906040528152506040518263ffffffff1660e01b8152600401611b059190613ea7565b600060405180830381600087803b158015611b1f57600080fd5b505af1158015611b33573d6000803e3d6000fd5b505050505050505050565b6000600660009054906101000a900473ffffffffffffffffffffffffffffffffffffffff16905081600660006101000a81548173ffffffffffffffffffffffffffffffffffffffff021916908373ffffffffffffffffffffffffffffffffffffffff1602179055508173ffffffffffffffffffffffffffffffffffffffff168173ffffffffffffffffffffffffffffffffffffffff167f8be0079c531659141344cd1fd0a4f28419497f9722a3daafe3b4186f6b6457e060405160405180910390a35050565b60007f01ffc9a7000000000000000000000000000000000000000000000000000000007bffffffffffffffffffffffffffffffffffffffffffffffffffffffff1916827bffffffffffffffffffffffffffffffffffffffffffffffffffffffff1916149050919050565b611c7781612633565b611cb6576040517f08c379a0000000000000000000000000000000000000000000000000000000008152600401611cad90613e27565b60405180910390fd5b50565b600033905090565b816004600083815260200190815260200160002060006101000a81548173ffffffffffffffffffffffffffffffffffffffff021916908373ffffffffffffffffffffffffffffffffffffffff160217905550808273ffffffffffffffffffffffffffffffffffffffff16611d3483610ff3565b73ffffffffffffffffffffffffffffffffffffffff167f8c5be1e5ebec7d5bd14f71427d1e84f3dd0314c0f7b2291e5b200ac8c7c3b92560405160405180910390a45050565b6000611d86600c612674565b611d90600c6122f1565b905090565b611daf82826040518060200160405280600081525061268a565b5050565b600080611dbf83610ff3565b90508073ffffffffffffffffffffffffffffffffffffffff168473ffffffffffffffffffffffffffffffffffffffff161480611e015750611e008185611623565b5b80611e3f57508373ffffffffffffffffffffffffffffffffffffffff16611e2784610945565b73ffffffffffffffffffffffffffffffffffffffff16145b91505092915050565b8273ffffffffffffffffffffffffffffffffffffffff16611e6882610ff3565b73ffffffffffffffffffffffffffffffffffffffff1614611ebe576040517f08c379a0000000000000000000000000000000000000000000000000000000008152600401611eb590613d47565b60405180910390fd5b600073ffffffffffffffffffffffffffffffffffffffff168273ffffffffffffffffffffffffffffffffffffffff161415611f2e576040517f08c379a0000000000000000000000000000000000000000000000000000000008152600401611f2590613d87565b60405180910390fd5b611f3b83838360016126e5565b8273ffffffffffffffffffffffffffffffffffffffff16611f5b82610ff3565b73ffffffffffffffffffffffffffffffffffffffff1614611fb1576040517f08c379a0000000000000000000000000000000000000000000000000000000008152600401611fa890613d47565b60405180910390fd5b6004600082815260200190815260200160002060006101000a81549073ffffffffffffffffffffffffffffffffffffffff02191690556001600360008573ffffffffffffffffffffffffffffffffffffffff1673ffffffffffffffffffffffffffffffffffffffff168152602001908152602001600020600082825403925050819055506001600360008473ffffffffffffffffffffffffffffffffffffffff1673ffffffffffffffffffffffffffffffffffffffff16815260200190815260200160002060008282540192505081905550816002600083815260200190815260200160002060006101000a81548173ffffffffffffffffffffffffffffffffffffffff021916908373ffffffffffffffffffffffffffffffffffffffff160217905550808273ffffffffffffffffffffffffffffffffffffffff168473ffffffffffffffffffffffffffffffffffffffff167fddf252ad1be2c89b69c2b068fc378daa952ba7f163c4a11628f55a4df523b3ef60405160405180910390a461213d83838360016126eb565b505050565b61214a611cb9565b73ffffffffffffffffffffffffffffffffffffffff16612168611334565b73ffffffffffffffffffffffffffffffffffffffff16146121be576040517f08c379a00000000000000000000000000000000000000000000000000000000081526004016121b590613e07565b60405180910390fd5b565b7f000000000000000000000000000000000000000000000000000000000000000073ffffffffffffffffffffffffffffffffffffffff163373ffffffffffffffffffffffffffffffffffffffff161461225057336040517fcbd9d2e00000000000000000000000000000000000000000000000000000000081526004016122479190613b7d565b60405180910390fd5b565b61225c8282611d95565b600061226782611468565b905060008151111561227e5761227d82826126f1565b5b505050565b60006002600083815260200190815260200160002060009054906101000a900473ffffffffffffffffffffffffffffffffffffffff169050919050565b600760006101000a81549073ffffffffffffffffffffffffffffffffffffffff02191690556122ee81611b3e565b50565b600081600001549050919050565b8173ffffffffffffffffffffffffffffffffffffffff168373ffffffffffffffffffffffffffffffffffffffff16141561236e576040517f08c379a000000000000000000000000000000000000000000000000000000000815260040161236590613da7565b60405180910390fd5b80600560008573ffffffffffffffffffffffffffffffffffffffff1673ffffffffffffffffffffffffffffffffffffffff16815260200190815260200160002060008473ffffffffffffffffffffffffffffffffffffffff1673ffffffffffffffffffffffffffffffffffffffff16815260200190815260200160002060006101000a81548160ff0219169083151502179055508173ffffffffffffffffffffffffffffffffffffffff168373ffffffffffffffffffffffffffffffffffffffff167f17307eab39ab6107e8899845ad3d59bd9653f200f220920489ca2b5937696c318360405161245f9190613c0d565b60405180910390a3505050565b612477848484611e48565b6124838484848461271d565b6124c2576040517f08c379a00000000000000000000000000000000000000000000000000000000081526004016124b990613d07565b60405180910390fd5b50505050565b6060600060016124d7846128b4565b01905060008167ffffffffffffffff8111156124f6576124f5614220565b5b6040519080825280601f01601f1916602001820160405280156125285781602001600182028036833780820191505090505b509050600082602001820190505b600115612595578080600190039150507f3031323334353637383961626364656600000000000000000000000000000000600a86061a8153600a858161257f5761257e6141c2565b5b049450600085141561259057612595565b612536565b819350505050919050565b60008067ffffffffffffffff8111156125bc576125bb614220565b5b6040519080825280601f01601f1916602001820160405280156125ee5781602001600182028036833780820191505090505b5080519060200120600860008481526020019081526020016000206040516126169190613b15565b604051809103902014159050919050565b61263081612a07565b50565b60008073ffffffffffffffffffffffffffffffffffffffff1661265583612283565b73ffffffffffffffffffffffffffffffffffffffff1614159050919050565b6001816000016000828254019250508190555050565b6126948383612b55565b6126a1600084848461271d565b6126e0576040517f08c379a00000000000000000000000000000000000000000000000000000000081526004016126d790613d07565b60405180910390fd5b505050565b50505050565b50505050565b80600b60008481526020019081526020016000209080519060200190612718929190612d96565b505050565b600061273e8473ffffffffffffffffffffffffffffffffffffffff16612d73565b156128a7578373ffffffffffffffffffffffffffffffffffffffff1663150b7a02612767611cb9565b8786866040518563ffffffff1660e01b81526004016127899493929190613b98565b602060405180830381600087803b1580156127a357600080fd5b505af19250505080156127d457506040513d601f19601f820116820180604052508101906127d191906133c7565b60015b612857573d8060008114612804576040519150601f19603f3d011682016040523d82523d6000602084013e612809565b606091505b5060008151141561284f576040517f08c379a000000000000000000000000000000000000000000000000000000000815260040161284690613d07565b60405180910390fd5b805181602001fd5b63150b7a0260e01b7bffffffffffffffffffffffffffffffffffffffffffffffffffffffff1916817bffffffffffffffffffffffffffffffffffffffffffffffffffffffff1916149150506128ac565b600190505b949350505050565b600080600090507a184f03e93ff9f4daa797ed6e38ed64bf6a1f0100000000000000008310612912577a184f03e93ff9f4daa797ed6e38ed64bf6a1f0100000000000000008381612908576129076141c2565b5b0492506040810190505b6d04ee2d6d415b85acef8100000000831061294f576d04ee2d6d415b85acef81000000008381612945576129446141c2565b5b0492506020810190505b662386f26fc10000831061297e57662386f26fc100008381612974576129736141c2565b5b0492506010810190505b6305f5e10083106129a7576305f5e100838161299d5761299c6141c2565b5b0492506008810190505b61271083106129cc5761271083816129c2576129c16141c2565b5b0492506004810190505b606483106129ef57606483816129e5576129e46141c2565b5b0492506002810190505b600a83106129fe576001810190505b80915050919050565b6000612a1282610ff3565b9050612a228160008460016126e5565b612a2b82610ff3565b90506004600083815260200190815260200160002060006101000a81549073ffffffffffffffffffffffffffffffffffffffff02191690556001600360008373ffffffffffffffffffffffffffffffffffffffff1673ffffffffffffffffffffffffffffffffffffffff168152602001908152602001600020600082825403925050819055506002600083815260200190815260200160002060006101000a81549073ffffffffffffffffffffffffffffffffffffffff021916905581600073ffffffffffffffffffffffffffffffffffffffff168273ffffffffffffffffffffffffffffffffffffffff167fddf252ad1be2c89b69c2b068fc378daa952ba7f163c4a11628f55a4df523b3ef60405160405180910390a4612b518160008460016126eb565b5050565b600073ffffffffffffffffffffffffffffffffffffffff168273ffffffffffffffffffffffffffffffffffffffff161415612bc5576040517f08c379a0000000000000000000000000000000000000000000000000000000008152600401612bbc90613de7565b60405180910390fd5b612bce81612633565b15612c0e576040517f08c379a0000000000000000000000000000000000000000000000000000000008152600401612c0590613d67565b60405180910390fd5b612c1c6000838360016126e5565b612c2581612633565b15612c65576040517f08c379a0000000000000000000000000000000000000000000000000000000008152600401612c5c90613d67565b60405180910390fd5b6001600360008473ffffffffffffffffffffffffffffffffffffffff1673ffffffffffffffffffffffffffffffffffffffff16815260200190815260200160002060008282540192505081905550816002600083815260200190815260200160002060006101000a81548173ffffffffffffffffffffffffffffffffffffffff021916908373ffffffffffffffffffffffffffffffffffffffff160217905550808273ffffffffffffffffffffffffffffffffffffffff16600073ffffffffffffffffffffffffffffffffffffffff167fddf252ad1be2c89b69c2b068fc378daa952ba7f163c4a11628f55a4df523b3ef60405160405180910390a4612d6f6000838360016126eb565b5050565b6000808273ffffffffffffffffffffffffffffffffffffffff163b119050919050565b828054612da29061415f565b90600052602060002090601f016020900481019282612dc45760008555612e0b565b82601f10612ddd57805160ff1916838001178555612e0b565b82800160010185558215612e0b579182015b82811115612e0a578251825591602001919060010190612def565b5b509050612e189190612ea2565b5090565b828054612e289061415f565b90600052602060002090601f016020900481019282612e4a5760008555612e91565b82601f10612e6357803560ff1916838001178555612e91565b82800160010185558215612e91579182015b82811115612e90578235825591602001919060010190612e75565b5b509050612e9e9190612ea2565b5090565b5b80821115612ebb576000816000905550600101612ea3565b5090565b6000612ed2612ecd84613f6c565b613f47565b905082815260208101848484011115612eee57612eed614272565b5b612ef984828561411d565b509392505050565b6000612f14612f0f84613f9d565b613f47565b905082815260208101848484011115612f3057612f2f614272565b5b612f3b84828561411d565b509392505050565b600081359050612f528161462c565b92915050565b600081359050612f6781614643565b92915050565b600081359050612f7c8161465a565b92915050565b600081519050612f918161465a565b92915050565b600081359050612fa681614671565b92915050565b600081359050612fbb81614688565b92915050565b600081519050612fd081614688565b92915050565b60008083601f840112612fec57612feb614254565b5b8235905067ffffffffffffffff8111156130095761300861424f565b5b60208301915083600182028301111561302557613024614268565b5b9250929050565b600082601f83011261304157613040614254565b5b8135613051848260208601612ebf565b91505092915050565b600082601f83011261306f5761306e614254565b5b813561307f848260208601612f01565b91505092915050565b600060a0828403121561309e5761309d61425e565b5b81905092915050565b600060c082840312156130bd576130bc61425e565b5b81905092915050565b6000813590506130d58161469f565b92915050565b6000815190506130ea8161469f565b92915050565b6000602082840312156131065761310561427c565b5b600061311484828501612f43565b91505092915050565b600080604083850312156131345761313361427c565b5b600061314285828601612f43565b925050602061315385828601612f43565b9150509250929050565b6000806000606084860312156131765761317561427c565b5b600061318486828701612f43565b935050602061319586828701612f43565b92505060406131a6868287016130c6565b9150509250925092565b600080600080608085870312156131ca576131c961427c565b5b60006131d887828801612f43565b94505060206131e987828801612f43565b93505060406131fa878288016130c6565b925050606085013567ffffffffffffffff81111561321b5761321a614277565b5b6132278782880161302c565b91505092959194509250565b6000806040838503121561324a5761324961427c565b5b600061325885828601612f43565b925050602061326985828601612f6d565b9150509250929050565b6000806040838503121561328a5761328961427c565b5b600061329885828601612f43565b92505060206132a9858286016130c6565b9150509250929050565b6000602082840312156132c9576132c861427c565b5b60006132d784828501612f82565b91505092915050565b6000806000606084860312156132f9576132f861427c565b5b600061330786828701612f97565b9350506020613318868287016130c6565b925050604061332986828701612f58565b9150509250925092565b6000806000806080858703121561334d5761334c61427c565b5b600061335b87828801612f97565b945050602061336c878288016130c6565b935050604061337d87828801612f58565b925050606061338e87828801612f58565b91505092959194509250565b6000602082840312156133b0576133af61427c565b5b60006133be84828501612fac565b91505092915050565b6000602082840312156133dd576133dc61427c565b5b60006133eb84828501612fc1565b91505092915050565b60006020828403121561340a5761340961427c565b5b600082013567ffffffffffffffff81111561342857613427614277565b5b6134348482850161305a565b91505092915050565b6000602082840312156134535761345261427c565b5b600082013567ffffffffffffffff81111561347157613470614277565b5b61347d84828501613088565b91505092915050565b60006020828403121561349c5761349b61427c565b5b600082013567ffffffffffffffff8111156134ba576134b9614277565b5b6134c6848285016130a7565b91505092915050565b6000602082840312156134e5576134e461427c565b5b60006134f3848285016130c6565b91505092915050565b6000602082840312156135125761351161427c565b5b6000613520848285016130db565b91505092915050565b6000806000606084860312156135425761354161427c565b5b6000613550868287016130c6565b935050602061356186828701612f43565b9250506040613572868287016130c6565b9150509250925092565b6000806000604084860312156135955761359461427c565b5b60006135a3868287016130c6565b935050602084013567ffffffffffffffff8111156135c4576135c3614277565b5b6135d086828701612fd6565b92509250509250925092565b6135e581614057565b82525050565b6135f48161407b565b82525050565b61360381614087565b82525050565b60006136158385614030565b935061362283858461411d565b82840190509392505050565b600061363982613ff8565b613643818561400e565b935061365381856020860161412c565b61365c81614281565b840191505092915050565b600061367282613ff8565b61367c818561401f565b935061368c81856020860161412c565b61369581614281565b840191505092915050565b600081546136ad8161415f565b6136b78186614030565b945060018216600081146136d257600181146136e357613716565b60ff19831686528186019350613716565b6136ec85613fce565b60005b8381101561370e578154818901526001820191506020810190506136ef565b838801955050505b50505092915050565b613728816140e7565b82525050565b600061373982614003565b613743818561403b565b935061375381856020860161412c565b61375c81614281565b840191505092915050565b600061377282614003565b61377c818561404c565b935061378c81856020860161412c565b80840191505092915050565b600081546137a58161415f565b6137af818661404c565b945060018216600081146137ca57600181146137db5761380e565b60ff1983168652818601935061380e565b6137e485613fe3565b60005b83811015613806578154818901526001820191506020810190506137e7565b838801955050505b50505092915050565b6000613824602d8361403b565b915061382f82614292565b604082019050919050565b600061384760328361403b565b9150613852826142e1565b604082019050919050565b600061386a60298361403b565b915061387582614330565b604082019050919050565b600061388d60258361403b565b91506138988261437f565b604082019050919050565b60006138b0601c8361403b565b91506138bb826143ce565b602082019050919050565b60006138d360248361403b565b91506138de826143f7565b604082019050919050565b60006138f660198361403b565b915061390182614446565b602082019050919050565b600061391960298361403b565b91506139248261446f565b604082019050919050565b600061393c60208361403b565b9150613947826144be565b602082019050919050565b600061395f60058361404c565b915061396a826144e7565b600582019050919050565b600061398260208361403b565b915061398d82614510565b602082019050919050565b60006139a560188361403b565b91506139b082614539565b602082019050919050565b60006139c860218361403b565b91506139d382614562565b604082019050919050565b60006139eb60008361403b565b91506139f6826145b1565b600082019050919050565b6000613a0e603d8361403b565b9150613a19826145b4565b604082019050919050565b6000613a3160018361404c565b9150613a3c82614603565b600182019050919050565b600060c083016000830151613a5f6000860182613ade565b5060208301518482036020860152613a77828261362e565b9150506040830151613a8c6040860182613ade565b5060608301518482036060860152613aa4828261362e565b9150506080830151613ab96080860182613ade565b5060a083015184820360a0860152613ad1828261362e565b9150508091505092915050565b613ae7816140dd565b82525050565b613af6816140dd565b82525050565b6000613b09828486613609565b91508190509392505050565b6000613b2182846136a0565b915081905092915050565b6000613b388284613767565b915081905092915050565b6000613b4f8285613798565b9150613b5a82613a24565b9150613b668284613767565b9150613b7182613952565b91508190509392505050565b6000602082019050613b9260008301846135dc565b92915050565b6000608082019050613bad60008301876135dc565b613bba60208301866135dc565b613bc76040830185613aed565b8181036060830152613bd98184613667565b905095945050505050565b6000604082019050613bf960008301856135dc565b613c066020830184613aed565b9392505050565b6000602082019050613c2260008301846135eb565b92915050565b6000602082019050613c3d60008301846135fa565b92915050565b6000608082019050613c5860008301876135fa565b613c656020830186613aed565b613c7260408301856135dc565b613c7f60608301846135dc565b95945050505050565b60006020820190508181036000830152613ca28184613667565b905092915050565b6000602082019050613cbf600083018461371f565b92915050565b60006020820190508181036000830152613cdf818461372e565b905092915050565b60006020820190508181036000830152613d0081613817565b9050919050565b60006020820190508181036000830152613d208161383a565b9050919050565b60006020820190508181036000830152613d408161385d565b9050919050565b60006020820190508181036000830152613d6081613880565b9050919050565b60006020820190508181036000830152613d80816138a3565b9050919050565b60006020820190508181036000830152613da0816138c6565b9050919050565b60006020820190508181036000830152613dc0816138e9565b9050919050565b60006020820190508181036000830152613de08161390c565b9050919050565b60006020820190508181036000830152613e008161392f565b9050919050565b60006020820190508181036000830152613e2081613975565b9050919050565b60006020820190508181036000830152613e4081613998565b9050919050565b60006020820190508181036000830152613e60816139bb565b9050919050565b60006020820190508181036000830152613e80816139de565b9050919050565b60006020820190508181036000830152613ea081613a01565b9050919050565b60006020820190508181036000830152613ec18184613a47565b905092915050565b6000602082019050613ede6000830184613aed565b92915050565b60008083356001602003843603038112613f0157613f00614263565b5b80840192508235915067ffffffffffffffff821115613f2357613f22614259565b5b602083019250600182023603831315613f3f57613f3e61426d565b5b509250929050565b6000613f51613f62565b9050613f5d8282614191565b919050565b6000604051905090565b600067ffffffffffffffff821115613f8757613f86614220565b5b613f9082614281565b9050602081019050919050565b600067ffffffffffffffff821115613fb857613fb7614220565b5b613fc182614281565b9050602081019050919050565b60008190508160005260206000209050919050565b60008190508160005260206000209050919050565b600081519050919050565b600081519050919050565b600082825260208201905092915050565b600082825260208201905092915050565b600081905092915050565b600082825260208201905092915050565b600081905092915050565b6000614062826140bd565b9050919050565b6000614074826140bd565b9050919050565b60008115159050919050565b6000819050919050565b60007fffffffff0000000000000000000000000000000000000000000000000000000082169050919050565b600073ffffffffffffffffffffffffffffffffffffffff82169050919050565b6000819050919050565b60006140f2826140f9565b9050919050565b60006141048261410b565b9050919050565b6000614116826140bd565b9050919050565b82818337600083830152505050565b60005b8381101561414a57808201518184015260208101905061412f565b83811115614159576000848401525b50505050565b6000600282049050600182168061417757607f821691505b6020821081141561418b5761418a6141f1565b5b50919050565b61419a82614281565b810181811067ffffffffffffffff821117156141b9576141b8614220565b5b80604052505050565b7f4e487b7100000000000000000000000000000000000000000000000000000000600052601260045260246000fd5b7f4e487b7100000000000000000000000000000000000000000000000000000000600052602260045260246000fd5b7f4e487b7100000000000000000000000000000000000000000000000000000000600052604160045260246000fd5b600080fd5b600080fd5b600080fd5b600080fd5b600080fd5b600080fd5b600080fd5b600080fd5b600080fd5b600080fd5b6000601f19601f8301169050919050565b7f4552433732313a2063616c6c6572206973206e6f7420746f6b656e206f776e6560008201527f72206f7220617070726f76656400000000000000000000000000000000000000602082015250565b7f4552433732313a207472616e7366657220746f206e6f6e20455243373231526560008201527f63656976657220696d706c656d656e7465720000000000000000000000000000602082015250565b7f4f776e61626c6532537465703a2063616c6c6572206973206e6f74207468652060008201527f6e6577206f776e65720000000000000000000000000000000000000000000000602082015250565b7f4552433732313a207472616e736665722066726f6d20696e636f72726563742060008201527f6f776e6572000000000000000000000000000000000000000000000000000000602082015250565b7f4552433732313a20746f6b656e20616c7265616479206d696e74656400000000600082015250565b7f4552433732313a207472616e7366657220746f20746865207a65726f2061646460008201527f7265737300000000000000000000000000000000000000000000000000000000602082015250565b7f4552433732313a20617070726f766520746f2063616c6c657200000000000000600082015250565b7f4552433732313a2061646472657373207a65726f206973206e6f74206120766160008201527f6c6964206f776e65720000000000000000000000000000000000000000000000602082015250565b7f4552433732313a206d696e7420746f20746865207a65726f2061646472657373600082015250565b7f2e6a736f6e000000000000000000000000000000000000000000000000000000600082015250565b7f4f776e61626c653a2063616c6c6572206973206e6f7420746865206f776e6572600082015250565b7f4552433732313a20696e76616c696420746f6b656e2049440000000000000000600082015250565b7f4552433732313a20617070726f76616c20746f2063757272656e74206f776e6560008201527f7200000000000000000000000000000000000000000000000000000000000000602082015250565b50565b7f4552433732313a20617070726f76652063616c6c6572206973206e6f7420746f60008201527f6b656e206f776e6572206f7220617070726f76656420666f7220616c6c000000602082015250565b7f2f00000000000000000000000000000000000000000000000000000000000000600082015250565b61463581614057565b811461464057600080fd5b50565b61464c81614069565b811461465757600080fd5b50565b6146638161407b565b811461466e57600080fd5b50565b61467a81614087565b811461468557600080fd5b50565b61469181614091565b811461469c57600080fd5b50565b6146a8816140dd565b81146146b357600080fd5b5056fea2646970667358221220266de2b7efe0d8c12ad94bfa36f345a39229aca5d001736ea385095797947f8f64736f6c63430008070033",
  "linkReferences": {},
  "deployedLinkReferences": {}
}