{
  "_format": "hh-sol-artifact-1",
  "contractName": "ZetasisNFT",
  "sourceName": "contracts/ZetasisNFT.sol",
  "abi": [
    {
      "inputs": [
        {
          "internalType": "address",
          "name": "connectorAddress",
          "type": "address"
        },
        {
          "internalType": "address",
          "name": "zetaTokenAddress",
          "type": "address"
        },
        {
          "internalType": "address",
          "name": "zetaConsumerAddress",
          "type": "address"
        },
        {
          "internalType": "bool",
          "name": "useEven",
          "type": "bool"
        }
      ],
      "stateMutability": "nonpayable",
      "type": "constructor"
    },
    {
      "inputs": [],
      "name": "ErrorApprovingZeta",
      "type": "error"
    },
    {
      "inputs": [],
      "name": "InvalidAddress",
      "type": "error"
    },
    {
      "inputs": [
        {
          "internalType": "address",
          "name": "caller",
          "type": "address"
        }
      ],
      "name": "InvalidCaller",
      "type": "error"
    },
    {
      "inputs": [],
      "name": "InvalidDestinationChainId",
      "type": "error"
    },
    {
      "inputs": [],
      "name": "InvalidMessageType",
      "type": "error"
    },
    {
      "inputs": [],
      "name": "InvalidTransferCaller",
      "type": "error"
    },
    {
      "inputs": [],
      "name": "InvalidZetaMessageCall",
      "type": "error"
    },
    {
      "inputs": [],
      "name": "InvalidZetaRevertCall",
      "type": "error"
    },
    {
      "anonymous": false,
      "inputs": [
        {
          "indexed": true,
          "internalType": "address",
          "name": "owner",
          "type": "address"
        },
        {
          "indexed": true,
          "internalType": "address",
          "name": "approved",
          "type": "address"
        },
        {
          "indexed": true,
          "internalType": "uint256",
          "name": "tokenId",
          "type": "uint256"
        }
      ],
      "name": "Approval",
      "type": "event"
    },
    {
      "anonymous": false,
      "inputs": [
        {
          "indexed": true,
          "internalType": "address",
          "name": "owner",
          "type": "address"
        },
        {
          "indexed": true,
          "internalType": "address",
          "name": "operator",
          "type": "address"
        },
        {
          "indexed": false,
          "internalType": "bool",
          "name": "approved",
          "type": "bool"
        }
      ],
      "name": "ApprovalForAll",
      "type": "event"
    },
    {
      "anonymous": false,
      "inputs": [
        {
          "indexed": true,
          "internalType": "address",
          "name": "minter",
          "type": "address"
        }
      ],
      "name": "Mint",
      "type": "event"
    },
    {
      "anonymous": false,
      "inputs": [
        {
          "indexed": true,
          "internalType": "address",
          "name": "previousOwner",
          "type": "address"
        },
        {
          "indexed": true,
          "internalType": "address",
          "name": "newOwner",
          "type": "address"
        }
      ],
      "name": "OwnershipTransferStarted",
      "type": "event"
    },
    {
      "anonymous": false,
      "inputs": [
        {
          "indexed": true,
          "internalType": "address",
          "name": "previousOwner",
          "type": "address"
        },
        {
          "indexed": true,
          "internalType": "address",
          "name": "newOwner",
          "type": "address"
        }
      ],
      "name": "OwnershipTransferred",
      "type": "event"
    },
    {
      "anonymous": false,
      "inputs": [
        {
          "indexed": true,
          "internalType": "string",
          "name": "uri",
          "type": "string"
        }
      ],
      "name": "SetBaseURI",
      "type": "event"
    },
    {
      "anonymous": false,
      "inputs": [
        {
          "indexed": true,
          "internalType": "string",
          "name": "uri",
          "type": "string"
        }
      ],
      "name": "SetCollectionURI",
      "type": "event"
    },
    {
      "anonymous": false,
      "inputs": [
        {
          "indexed": true,
          "internalType": "address",
          "name": "from",
          "type": "address"
        },
        {
          "indexed": true,
          "internalType": "address",
          "name": "to",
          "type": "address"
        },
        {
          "indexed": true,
          "internalType": "uint256",
          "name": "tokenId",
          "type": "uint256"
        }
      ],
      "name": "Transfer",
      "type": "event"
    },
    {
      "inputs": [],
      "name": "CROSS_CHAIN_TRANSFER_MESSAGE",
      "outputs": [
        {
          "internalType": "bytes32",
          "name": "",
          "type": "bytes32"
        }
      ],
      "stateMutability": "view",
      "type": "function"
    },
    {
      "inputs": [],
      "name": "acceptOwnership",
      "outputs": [],
      "stateMutability": "nonpayable",
      "type": "function"
    },
    {
      "inputs": [
        {
          "internalType": "address",
          "name": "to",
          "type": "address"
        },
        {
          "internalType": "uint256",
          "name": "tokenId",
          "type": "uint256"
        }
      ],
      "name": "approve",
      "outputs": [],
      "stateMutability": "nonpayable",
      "type": "function"
    },
    {
      "inputs": [
        {
          "internalType": "address",
          "name": "owner",
          "type": "address"
        }
      ],
      "name": "balanceOf",
      "outputs": [
        {
          "internalType": "uint256",
          "name": "",
          "type": "uint256"
        }
      ],
      "stateMutability": "view",
      "type": "function"
    },
    {
      "inputs": [],
      "name": "baseURI",
      "outputs": [
        {
          "internalType": "string",
          "name": "",
          "type": "string"
        }
      ],
      "stateMutability": "view",
      "type": "function"
    },
    {
      "inputs": [],
      "name": "connector",
      "outputs": [
        {
          "internalType": "contract ZetaConnector",
          "name": "",
          "type": "address"
        }
      ],
      "stateMutability": "view",
      "type": "function"
    },
    {
      "inputs": [],
      "name": "contractURI",
      "outputs": [
        {
          "internalType": "string",
          "name": "",
          "type": "string"
        }
      ],
      "stateMutability": "view",
      "type": "function"
    },
    {
      "inputs": [
        {
          "internalType": "uint256",
          "name": "crossChainId",
          "type": "uint256"
        },
        {
          "internalType": "address",
          "name": "to",
          "type": "address"
        },
        {
          "internalType": "uint256",
          "name": "tokenId",
          "type": "uint256"
        }
      ],
      "name": "crossChainTransfer",
      "outputs": [],
      "stateMutability": "payable",
      "type": "function"
    },
    {
      "inputs": [
        {
          "internalType": "uint256",
          "name": "tokenId",
          "type": "uint256"
        }
      ],
      "name": "getApproved",
      "outputs": [
        {
          "internalType": "address",
          "name": "",
          "type": "address"
        }
      ],
      "stateMutability": "view",
      "type": "function"
    },
    {
      "inputs": [],
      "name": "getBaseURI",
      "outputs": [
        {
          "internalType": "string",
          "name": "",
          "type": "string"
        }
      ],
      "stateMutability": "view",
      "type": "function"
    },
    {
      "inputs": [],
      "name": "getLastTokenId",
      "outputs": [
        {
          "internalType": "uint256",
          "name": "",
          "type": "uint256"
        }
      ],
      "stateMutability": "view",
      "type": "function"
    },
    {
      "inputs": [
        {
          "internalType": "uint256",
          "name": "",
          "type": "uint256"
        }
      ],
      "name": "interactorsByChainId",
      "outputs": [
        {
          "internalType": "bytes",
          "name": "",
          "type": "bytes"
        }
      ],
      "stateMutability": "view",
      "type": "function"
    },
    {
      "inputs": [
        {
          "internalType": "address",
          "name": "owner",
          "type": "address"
        },
        {
          "internalType": "address",
          "name": "operator",
          "type": "address"
        }
      ],
      "name": "isApprovedForAll",
      "outputs": [
        {
          "internalType": "bool",
          "name": "",
          "type": "bool"
        }
      ],
      "stateMutability": "view",
      "type": "function"
    },
    {
      "inputs": [
        {
          "internalType": "string",
          "name": "_tokenURI",
          "type": "string"
        }
      ],
      "name": "mint",
      "outputs": [],
      "stateMutability": "nonpayable",
      "type": "function"
    },
    {
      "inputs": [],
      "name": "name",
      "outputs": [
        {
          "internalType": "string",
          "name": "",
          "type": "string"
        }
      ],
      "stateMutability": "view",
      "type": "function"
    },
    {
      "inputs": [
        {
          "components": [
            {
              "internalType": "bytes",
              "name": "zetaTxSenderAddress",
              "type": "bytes"
            },
            {
              "internalType": "uint256",
              "name": "sourceChainId",
              "type": "uint256"
            },
            {
              "internalType": "address",
              "name": "destinationAddress",
              "type": "address"
            },
            {
              "internalType": "uint256",
              "name": "zetaValue",
              "type": "uint256"
            },
            {
              "internalType": "bytes",
              "name": "message",
              "type": "bytes"
            }
          ],
          "internalType": "struct ZetaInterfaces.ZetaMessage",
          "name": "zetaMessage",
          "type": "tuple"
        }
      ],
      "name": "onZetaMessage",
      "outputs": [],
      "stateMutability": "nonpayable",
      "type": "function"
    },
    {
      "inputs": [
        {
          "components": [
            {
              "internalType": "address",
              "name": "zetaTxSenderAddress",
              "type": "address"
            },
            {
              "internalType": "uint256",
              "name": "sourceChainId",
              "type": "uint256"
            },
            {
              "internalType": "bytes",
              "name": "destinationAddress",
              "type": "bytes"
            },
            {
              "internalType": "uint256",
              "name": "destinationChainId",
              "type": "uint256"
            },
            {
              "internalType": "uint256",
              "name": "remainingZetaValue",
              "type": "uint256"
            },
            {
              "internalType": "bytes",
              "name": "message",
              "type": "bytes"
            }
          ],
          "internalType": "struct ZetaInterfaces.ZetaRevert",
          "name": "zetaRevert",
          "type": "tuple"
        }
      ],
      "name": "onZetaRevert",
      "outputs": [],
      "stateMutability": "nonpayable",
      "type": "function"
    },
    {
      "inputs": [],
      "name": "owner",
      "outputs": [
        {
          "internalType": "address",
          "name": "",
          "type": "address"
        }
      ],
      "stateMutability": "view",
      "type": "function"
    },
    {
      "inputs": [
        {
          "internalType": "uint256",
          "name": "tokenId",
          "type": "uint256"
        }
      ],
      "name": "ownerOf",
      "outputs": [
        {
          "internalType": "address",
          "name": "",
          "type": "address"
        }
      ],
      "stateMutability": "view",
      "type": "function"
    },
    {
      "inputs": [],
      "name": "pendingOwner",
      "outputs": [
        {
          "internalType": "address",
          "name": "",
          "type": "address"
        }
      ],
      "stateMutability": "view",
      "type": "function"
    },
    {
      "inputs": [],
      "name": "renounceOwnership",
      "outputs": [],
      "stateMutability": "nonpayable",
      "type": "function"
    },
    {
      "inputs": [
        {
          "internalType": "address",
          "name": "from",
          "type": "address"
        },
        {
          "internalType": "address",
          "name": "to",
          "type": "address"
        },
        {
          "internalType": "uint256",
          "name": "tokenId",
          "type": "uint256"
        }
      ],
      "name": "safeTransferFrom",
      "outputs": [],
      "stateMutability": "nonpayable",
      "type": "function"
    },
    {
      "inputs": [
        {
          "internalType": "address",
          "name": "from",
          "type": "address"
        },
        {
          "internalType": "address",
          "name": "to",
          "type": "address"
        },
        {
          "internalType": "uint256",
          "name": "tokenId",
          "type": "uint256"
        },
        {
          "internalType": "bytes",
          "name": "data",
          "type": "bytes"
        }
      ],
      "name": "safeTransferFrom",
      "outputs": [],
      "stateMutability": "nonpayable",
      "type": "function"
    },
    {
      "inputs": [
        {
          "internalType": "address",
          "name": "operator",
          "type": "address"
        },
        {
          "internalType": "bool",
          "name": "approved",
          "type": "bool"
        }
      ],
      "name": "setApprovalForAll",
      "outputs": [],
      "stateMutability": "nonpayable",
      "type": "function"
    },
    {
      "inputs": [
        {
          "internalType": "string",
          "name": "newbaseURI",
          "type": "string"
        }
      ],
      "name": "setBaseURI",
      "outputs": [],
      "stateMutability": "nonpayable",
      "type": "function"
    },
    {
      "inputs": [
        {
          "internalType": "string",
          "name": "_collectionURI",
          "type": "string"
        }
      ],
      "name": "setCollectionURI",
      "outputs": [],
      "stateMutability": "nonpayable",
      "type": "function"
    },
    {
      "inputs": [
        {
          "internalType": "uint256",
          "name": "destinationChainId",
          "type": "uint256"
        },
        {
          "internalType": "bytes",
          "name": "contractAddress",
          "type": "bytes"
        }
      ],
      "name": "setInteractorByChainId",
      "outputs": [],
      "stateMutability": "nonpayable",
      "type": "function"
    },
    {
      "inputs": [
        {
          "internalType": "bytes4",
          "name": "interfaceId",
          "type": "bytes4"
        }
      ],
      "name": "supportsInterface",
      "outputs": [
        {
          "internalType": "bool",
          "name": "",
          "type": "bool"
        }
      ],
      "stateMutability": "view",
      "type": "function"
    },
    {
      "inputs": [],
      "name": "symbol",
      "outputs": [
        {
          "internalType": "string",
          "name": "",
          "type": "string"
        }
      ],
      "stateMutability": "view",
      "type": "function"
    },
    {
      "inputs": [],
      "name": "tokenIds",
      "outputs": [
        {
          "internalType": "uint256",
          "name": "_value",
          "type": "uint256"
        }
      ],
      "stateMutability": "view",
      "type": "function"
    },
    {
      "inputs": [
        {
          "internalType": "uint256",
          "name": "tokenId",
          "type": "uint256"
        }
      ],
      "name": "tokenURI",
      "outputs": [
        {
          "internalType": "string",
          "name": "",
          "type": "string"
        }
      ],
      "stateMutability": "view",
      "type": "function"
    },
    {
      "inputs": [
        {
          "internalType": "address",
          "name": "from",
          "type": "address"
        },
        {
          "internalType": "address",
          "name": "to",
          "type": "address"
        },
        {
          "internalType": "uint256",
          "name": "tokenId",
          "type": "uint256"
        }
      ],
      "name": "transferFrom",
      "outputs": [],
      "stateMutability": "nonpayable",
      "type": "function"
    },
    {
      "inputs": [
        {
          "internalType": "address",
          "name": "newOwner",
          "type": "address"
        }
      ],
      "name": "transferOwnership",
      "outputs": [],
      "stateMutability": "nonpayable",
      "type": "function"
    }
  ],
  "bytecode": "0x6101006040523480156200001257600080fd5b5060405162004c5a38038062004c5a833981810160405281019062000038919062000403565b836040518060400160405280600a81526020017f5a6574617369734e4654000000000000000000000000000000000000000000008152506040518060400160405280600481526020017f5a4e4654000000000000000000000000000000000000000000000000000000008152508160009080519060200190620000bd92919062000325565b508060019080519060200190620000d692919062000325565b505050620000f9620000ed6200021960201b60201c565b6200022160201b60201c565b600073ffffffffffffffffffffffffffffffffffffffff168173ffffffffffffffffffffffffffffffffffffffff16141562000161576040517fe6c4247b00000000000000000000000000000000000000000000000000000000815260040160405180910390fd5b46608081815250508073ffffffffffffffffffffffffffffffffffffffff1660a08173ffffffffffffffffffffffffffffffffffffffff1660601b81525050508273ffffffffffffffffffffffffffffffffffffffff1660c08173ffffffffffffffffffffffffffffffffffffffff1660601b815250508173ffffffffffffffffffffffffffffffffffffffff1660e08173ffffffffffffffffffffffffffffffffffffffff1660601b815250505050505062000553565b600033905090565b600760006101000a81549073ffffffffffffffffffffffffffffffffffffffff02191690556200025c816200025f60201b62001b011760201c565b50565b6000600660009054906101000a900473ffffffffffffffffffffffffffffffffffffffff16905081600660006101000a81548173ffffffffffffffffffffffffffffffffffffffff021916908373ffffffffffffffffffffffffffffffffffffffff1602179055508173ffffffffffffffffffffffffffffffffffffffff168173ffffffffffffffffffffffffffffffffffffffff167f8be0079c531659141344cd1fd0a4f28419497f9722a3daafe3b4186f6b6457e060405160405180910390a35050565b8280546200033390620004b5565b90600052602060002090601f016020900481019282620003575760008555620003a3565b82601f106200037257805160ff1916838001178555620003a3565b82800160010185558215620003a3579182015b82811115620003a257825182559160200191906001019062000385565b5b509050620003b29190620003b6565b5090565b5b80821115620003d1576000816000905550600101620003b7565b5090565b600081519050620003e6816200051f565b92915050565b600081519050620003fd8162000539565b92915050565b6000806000806080858703121562000420576200041f6200051a565b5b60006200043087828801620003d5565b94505060206200044387828801620003d5565b93505060406200045687828801620003d5565b92505060606200046987828801620003ec565b91505092959194509250565b6000620004828262000495565b9050919050565b60008115159050919050565b600073ffffffffffffffffffffffffffffffffffffffff82169050919050565b60006002820490506001821680620004ce57607f821691505b60208210811415620004e557620004e4620004eb565b5b50919050565b7f4e487b7100000000000000000000000000000000000000000000000000000000600052602260045260246000fd5b600080fd5b6200052a8162000475565b81146200053657600080fd5b50565b620005448162000489565b81146200055057600080fd5b50565b60805160a05160601c60c05160601c60e05160601c6146af620005ab60003960006117be0152600061186e01526000818161126e015281816118aa01528181611945015261214c01526000610dae01526146af6000f3fe6080604052600436106101ee5760003560e01c8063714c53981161010d578063a22cb465116100a0578063e30c39781161006f578063e30c3978146106d5578063e8a3d48514610700578063e985e9c51461072b578063f2fde38b14610768578063f6e7393c14610791576101ee565b8063a22cb4651461061d578063b88d4fde14610646578063c87b56dd1461066f578063d85d3d27146106ac576101ee565b806383c4c00d116100dc57806383c4c00d1461057157806383f3084f1461059c5780638da5cb5b146105c757806395d89b41146105f2576101ee565b8063714c5398146104ed578063714cff5614610518578063715018a61461054357806379ba50971461055a576101ee565b80633749c51a1161018557806355f804b31161015457806355f804b31461041f5780636352211e146104485780636c0360eb1461048557806370a08231146104b0576101ee565b80633749c51a1461037b5780633ff0693c146103a457806342842e0e146103cd5780634fd3f7d7146103f6576101ee565b80631c639dbe116101c15780631c639dbe146102c157806323b872dd146102ec5780632618143f146103155780632639f46014610352576101ee565b806301ffc9a7146101f357806306fdde0314610230578063081812fc1461025b578063095ea7b314610298575b600080fd5b3480156101ff57600080fd5b5061021a6004803603810190610215919061335d565b6107ad565b6040516102279190613bd0565b60405180910390f35b34801561023c57600080fd5b5061024561088f565b6040516102529190613c88565b60405180910390f35b34801561026757600080fd5b50610282600480360381019061027d9190613492565b610921565b60405161028f9190613b40565b60405180910390f35b3480156102a457600080fd5b506102bf60048036038101906102ba9190613236565b610967565b005b3480156102cd57600080fd5b506102d6610a7f565b6040516102e39190613beb565b60405180910390f35b3480156102f857600080fd5b50610313600480360381019061030e9190613120565b610aa3565b005b34801561032157600080fd5b5061033c60048036038101906103379190613492565b610b03565b6040516103499190613c4b565b60405180910390f35b34801561035e57600080fd5b50610379600480360381019061037491906133b7565b610ba3565b005b34801561038757600080fd5b506103a2600480360381019061039d9190613400565b610c07565b005b3480156103b057600080fd5b506103cb60048036038101906103c69190613449565b610d2c565b005b3480156103d957600080fd5b506103f460048036038101906103ef9190613120565b610e9b565b005b34801561040257600080fd5b5061041d6004803603810190610418919061353f565b610ebb565b005b34801561042b57600080fd5b50610446600480360381019061044191906133b7565b610eeb565b005b34801561045457600080fd5b5061046f600480360381019061046a9190613492565b610f4f565b60405161047c9190613b40565b60405180910390f35b34801561049157600080fd5b5061049a610fd6565b6040516104a79190613c88565b60405180910390f35b3480156104bc57600080fd5b506104d760048036038101906104d291906130b3565b611064565b6040516104e49190613e8c565b60405180910390f35b3480156104f957600080fd5b5061050261111c565b60405161050f9190613c88565b60405180910390f35b34801561052457600080fd5b5061052d6111ae565b60405161053a9190613e8c565b60405180910390f35b34801561054f57600080fd5b506105586111ba565b005b34801561056657600080fd5b5061056f6111ce565b005b34801561057d57600080fd5b5061058661125b565b6040516105939190613e8c565b60405180910390f35b3480156105a857600080fd5b506105b161126c565b6040516105be9190613c6d565b60405180910390f35b3480156105d357600080fd5b506105dc611290565b6040516105e99190613b40565b60405180910390f35b3480156105fe57600080fd5b506106076112ba565b6040516106149190613c88565b60405180910390f35b34801561062957600080fd5b50610644600480360381019061063f91906131f6565b61134c565b005b34801561065257600080fd5b5061066d60048036038101906106689190613173565b611362565b005b34801561067b57600080fd5b5061069660048036038101906106919190613492565b6113c4565b6040516106a39190613c88565b60405180910390f35b3480156106b857600080fd5b506106d360048036038101906106ce91906133b7565b6114c3565b005b3480156106e157600080fd5b506106ea61152a565b6040516106f79190613b40565b60405180910390f35b34801561070c57600080fd5b50610715611554565b6040516107229190613c88565b60405180910390f35b34801561073757600080fd5b50610752600480360381019061074d91906130e0565b6115e6565b60405161075f9190613bd0565b60405180910390f35b34801561077457600080fd5b5061078f600480360381019061078a91906130b3565b61167a565b005b6107ab60048036038101906107a691906134ec565b611727565b005b60007f80ac58cd000000000000000000000000000000000000000000000000000000007bffffffffffffffffffffffffffffffffffffffffffffffffffffffff1916827bffffffffffffffffffffffffffffffffffffffffffffffffffffffff1916148061087857507f5b5e139f000000000000000000000000000000000000000000000000000000007bffffffffffffffffffffffffffffffffffffffffffffffffffffffff1916827bffffffffffffffffffffffffffffffffffffffffffffffffffffffff1916145b80610888575061088782611bc7565b5b9050919050565b60606000805461089e90614122565b80601f01602080910402602001604051908101604052809291908181526020018280546108ca90614122565b80156109175780601f106108ec57610100808354040283529160200191610917565b820191906000526020600020905b8154815290600101906020018083116108fa57829003601f168201915b5050505050905090565b600061092c82611c31565b6004600083815260200190815260200160002060009054906101000a900473ffffffffffffffffffffffffffffffffffffffff169050919050565b600061097282610f4f565b90508073ffffffffffffffffffffffffffffffffffffffff168373ffffffffffffffffffffffffffffffffffffffff1614156109e3576040517f08c379a00000000000000000000000000000000000000000000000000000000081526004016109da90613e0a565b60405180910390fd5b8073ffffffffffffffffffffffffffffffffffffffff16610a02611c7c565b73ffffffffffffffffffffffffffffffffffffffff161480610a315750610a3081610a2b611c7c565b6115e6565b5b610a70576040517f08c379a0000000000000000000000000000000000000000000000000000000008152600401610a6790613e4a565b60405180910390fd5b610a7a8383611c84565b505050565b7f0cf763a152a14efd7f9d26f207a366a5611e6d260189ea570f82ea587843a9c081565b610ab4610aae611c7c565b82611d3d565b610af3576040517f08c379a0000000000000000000000000000000000000000000000000000000008152600401610aea90613caa565b60405180910390fd5b610afe838383611dd2565b505050565b60086020528060005260406000206000915090508054610b2290614122565b80601f0160208091040260200160405190810160405280929190818152602001828054610b4e90614122565b8015610b9b5780601f10610b7057610100808354040283529160200191610b9b565b820191906000526020600020905b815481529060010190602001808311610b7e57829003601f168201915b505050505081565b610bab6120cc565b80600a9080519060200190610bc1929190612d59565b5080604051610bd09190613aef565b60405180910390207ff88079580916acca3afc2e0f6ce909bab62d70f38e856286ffd15925be4fd9cc60405160405180910390a250565b80610c1061214a565b6008600082602001358152602001908152602001600020604051610c349190613ad8565b6040518091039020818060000190610c4c9190613ea7565b604051610c5a929190613abf565b604051809103902014610c99576040517fb473eb0a00000000000000000000000000000000000000000000000000000000815260040160405180910390fd5b6000806000848060800190610cae9190613ea7565b810190610cbb91906132f6565b935050925092507f0cf763a152a14efd7f9d26f207a366a5611e6d260189ea570f82ea587843a9c08314610d1b576040517f5b60892f00000000000000000000000000000000000000000000000000000000815260040160405180910390fd5b610d2581836121dc565b5050505050565b80610d3561214a565b3073ffffffffffffffffffffffffffffffffffffffff16816000016020810190610d5f91906130b3565b73ffffffffffffffffffffffffffffffffffffffff1614610dac576040517fc03e9c3f00000000000000000000000000000000000000000000000000000000815260040160405180910390fd5b7f0000000000000000000000000000000000000000000000000000000000000000816020013514610e09576040517fc03e9c3f00000000000000000000000000000000000000000000000000000000815260040160405180910390fd5b6000806000848060a00190610e1e9190613ea7565b810190610e2b91906132a3565b9250925092507f0cf763a152a14efd7f9d26f207a366a5611e6d260189ea570f82ea587843a9c08314610e8a576040517f5b60892f00000000000000000000000000000000000000000000000000000000815260040160405180910390fd5b610e9481836121dc565b5050505050565b610eb683838360405180602001604052806000815250611362565b505050565b610ec36120cc565b8181600860008681526020019081526020016000209190610ee5929190612ddf565b50505050565b610ef36120cc565b8060099080519060200190610f09929190612d59565b5080604051610f189190613aef565b60405180910390207f23c8c9488efebfd474e85a7956de6f39b17c7ab88502d42a623db2d8e382bbaa60405160405180910390a250565b600080610f5b8361220d565b9050600073ffffffffffffffffffffffffffffffffffffffff168173ffffffffffffffffffffffffffffffffffffffff161415610fcd576040517f08c379a0000000000000000000000000000000000000000000000000000000008152600401610fc490613dea565b60405180910390fd5b80915050919050565b60098054610fe390614122565b80601f016020809104026020016040519081016040528092919081815260200182805461100f90614122565b801561105c5780601f106110315761010080835404028352916020019161105c565b820191906000526020600020905b81548152906001019060200180831161103f57829003601f168201915b505050505081565b60008073ffffffffffffffffffffffffffffffffffffffff168273ffffffffffffffffffffffffffffffffffffffff1614156110d5576040517f08c379a00000000000000000000000000000000000000000000000000000000081526004016110cc90613d8a565b60405180910390fd5b600360008373ffffffffffffffffffffffffffffffffffffffff1673ffffffffffffffffffffffffffffffffffffffff168152602001908152602001600020549050919050565b60606009805461112b90614122565b80601f016020809104026020016040519081016040528092919081815260200182805461115790614122565b80156111a45780601f10611179576101008083540402835291602001916111a4565b820191906000526020600020905b81548152906001019060200180831161118757829003601f168201915b5050505050905090565b600c8060000154905081565b6111c26120cc565b6111cc600061224a565b565b60006111d8611c7c565b90508073ffffffffffffffffffffffffffffffffffffffff166111f961152a565b73ffffffffffffffffffffffffffffffffffffffff161461124f576040517f08c379a000000000000000000000000000000000000000000000000000000000815260040161124690613cea565b60405180910390fd5b6112588161224a565b50565b6000611267600c61227b565b905090565b7f000000000000000000000000000000000000000000000000000000000000000081565b6000600660009054906101000a900473ffffffffffffffffffffffffffffffffffffffff16905090565b6060600180546112c990614122565b80601f01602080910402602001604051908101604052809291908181526020018280546112f590614122565b80156113425780601f1061131757610100808354040283529160200191611342565b820191906000526020600020905b81548152906001019060200180831161132557829003601f168201915b5050505050905090565b61135e611357611c7c565b8383612289565b5050565b61137361136d611c7c565b83611d3d565b6113b2576040517f08c379a00000000000000000000000000000000000000000000000000000000081526004016113a990613caa565b60405180910390fd5b6113be848484846123f6565b50505050565b60606000600b600084815260200190815260200160002080546113e690614122565b90501461149057600b6000838152602001908152602001600020805461140b90614122565b80601f016020809104026020016040519081016040528092919081815260200182805461143790614122565b80156114845780601f1061145957610100808354040283529160200191611484565b820191906000526020600020905b81548152906001019060200180831161146757829003601f168201915b505050505090506114be565b600961149b83612452565b6040516020016114ac929190613b06565b60405160208183030381529060405290505b919050565b60006114cd61252a565b90506114d93382612545565b6114e38183612563565b3373ffffffffffffffffffffffffffffffffffffffff167f3c3284d117c92d0b1699230960384e794dcba184cc48ff114fe4fed20c9b056560405160405180910390a25050565b6000600760009054906101000a900473ffffffffffffffffffffffffffffffffffffffff16905090565b6060600a805461156390614122565b80601f016020809104026020016040519081016040528092919081815260200182805461158f90614122565b80156115dc5780601f106115b1576101008083540402835291602001916115dc565b820191906000526020600020905b8154815290600101906020018083116115bf57829003601f168201915b5050505050905090565b6000600560008473ffffffffffffffffffffffffffffffffffffffff1673ffffffffffffffffffffffffffffffffffffffff16815260200190815260200160002060008373ffffffffffffffffffffffffffffffffffffffff1673ffffffffffffffffffffffffffffffffffffffff16815260200190815260200160002060009054906101000a900460ff16905092915050565b6116826120cc565b80600760006101000a81548173ffffffffffffffffffffffffffffffffffffffff021916908373ffffffffffffffffffffffffffffffffffffffff1602179055508073ffffffffffffffffffffffffffffffffffffffff166116e2611290565b73ffffffffffffffffffffffffffffffffffffffff167f38d16b8cac22d99fc7c124b9cd0de2d3fa1faef420bfe791d8c362d765e2270060405160405180910390a350565b6117308361258f565b611766576040517f90eaaa7000000000000000000000000000000000000000000000000000000000815260040160405180910390fd5b611777611771611c7c565b82611d3d565b6117ad576040517fd2ec845c00000000000000000000000000000000000000000000000000000000815260040160405180910390fd5b600067f9ccd8a1c5080000905060007f000000000000000000000000000000000000000000000000000000000000000073ffffffffffffffffffffffffffffffffffffffff1663013b2ff83430856040518463ffffffff1660e01b8152600401611818929190613ba7565b6020604051808303818588803b15801561183157600080fd5b505af1158015611845573d6000803e3d6000fd5b50505050506040513d601f19601f8201168201806040525081019061186a91906134bf565b90507f000000000000000000000000000000000000000000000000000000000000000073ffffffffffffffffffffffffffffffffffffffff1663095ea7b37f0000000000000000000000000000000000000000000000000000000000000000836040518363ffffffff1660e01b81526004016118e7929190613ba7565b602060405180830381600087803b15801561190157600080fd5b505af1158015611915573d6000803e3d6000fd5b505050506040513d601f19601f820116820180604052508101906119399190613276565b5061194383612616565b7f000000000000000000000000000000000000000000000000000000000000000073ffffffffffffffffffffffffffffffffffffffff1663ec0269016040518060c00160405280888152602001600860008a815260200190815260200160002080546119ae90614122565b80601f01602080910402602001604051908101604052809291908181526020018280546119da90614122565b8015611a275780601f106119fc57610100808354040283529160200191611a27565b820191906000526020600020905b815481529060010190602001808311611a0a57829003601f168201915b505050505081526020016207a12081526020017f0cf763a152a14efd7f9d26f207a366a5611e6d260189ea570f82ea587843a9c087338a604051602001611a719493929190613c06565b6040516020818303038152906040528152602001848152602001604051602001611a9a90613e2a565b6040516020818303038152906040528152506040518263ffffffff1660e01b8152600401611ac89190613e6a565b600060405180830381600087803b158015611ae257600080fd5b505af1158015611af6573d6000803e3d6000fd5b505050505050505050565b6000600660009054906101000a900473ffffffffffffffffffffffffffffffffffffffff16905081600660006101000a81548173ffffffffffffffffffffffffffffffffffffffff021916908373ffffffffffffffffffffffffffffffffffffffff1602179055508173ffffffffffffffffffffffffffffffffffffffff168173ffffffffffffffffffffffffffffffffffffffff167f8be0079c531659141344cd1fd0a4f28419497f9722a3daafe3b4186f6b6457e060405160405180910390a35050565b60007f01ffc9a7000000000000000000000000000000000000000000000000000000007bffffffffffffffffffffffffffffffffffffffffffffffffffffffff1916827bffffffffffffffffffffffffffffffffffffffffffffffffffffffff1916149050919050565b611c3a81612622565b611c79576040517f08c379a0000000000000000000000000000000000000000000000000000000008152600401611c7090613dea565b60405180910390fd5b50565b600033905090565b816004600083815260200190815260200160002060006101000a81548173ffffffffffffffffffffffffffffffffffffffff021916908373ffffffffffffffffffffffffffffffffffffffff160217905550808273ffffffffffffffffffffffffffffffffffffffff16611cf783610f4f565b73ffffffffffffffffffffffffffffffffffffffff167f8c5be1e5ebec7d5bd14f71427d1e84f3dd0314c0f7b2291e5b200ac8c7c3b92560405160405180910390a45050565b600080611d4983610f4f565b90508073ffffffffffffffffffffffffffffffffffffffff168473ffffffffffffffffffffffffffffffffffffffff161480611d8b5750611d8a81856115e6565b5b80611dc957508373ffffffffffffffffffffffffffffffffffffffff16611db184610921565b73ffffffffffffffffffffffffffffffffffffffff16145b91505092915050565b8273ffffffffffffffffffffffffffffffffffffffff16611df282610f4f565b73ffffffffffffffffffffffffffffffffffffffff1614611e48576040517f08c379a0000000000000000000000000000000000000000000000000000000008152600401611e3f90613d0a565b60405180910390fd5b600073ffffffffffffffffffffffffffffffffffffffff168273ffffffffffffffffffffffffffffffffffffffff161415611eb8576040517f08c379a0000000000000000000000000000000000000000000000000000000008152600401611eaf90613d4a565b60405180910390fd5b611ec58383836001612663565b8273ffffffffffffffffffffffffffffffffffffffff16611ee582610f4f565b73ffffffffffffffffffffffffffffffffffffffff1614611f3b576040517f08c379a0000000000000000000000000000000000000000000000000000000008152600401611f3290613d0a565b60405180910390fd5b6004600082815260200190815260200160002060006101000a81549073ffffffffffffffffffffffffffffffffffffffff02191690556001600360008573ffffffffffffffffffffffffffffffffffffffff1673ffffffffffffffffffffffffffffffffffffffff168152602001908152602001600020600082825403925050819055506001600360008473ffffffffffffffffffffffffffffffffffffffff1673ffffffffffffffffffffffffffffffffffffffff16815260200190815260200160002060008282540192505081905550816002600083815260200190815260200160002060006101000a81548173ffffffffffffffffffffffffffffffffffffffff021916908373ffffffffffffffffffffffffffffffffffffffff160217905550808273ffffffffffffffffffffffffffffffffffffffff168473ffffffffffffffffffffffffffffffffffffffff167fddf252ad1be2c89b69c2b068fc378daa952ba7f163c4a11628f55a4df523b3ef60405160405180910390a46120c78383836001612669565b505050565b6120d4611c7c565b73ffffffffffffffffffffffffffffffffffffffff166120f2611290565b73ffffffffffffffffffffffffffffffffffffffff1614612148576040517f08c379a000000000000000000000000000000000000000000000000000000000815260040161213f90613dca565b60405180910390fd5b565b7f000000000000000000000000000000000000000000000000000000000000000073ffffffffffffffffffffffffffffffffffffffff163373ffffffffffffffffffffffffffffffffffffffff16146121da57336040517fcbd9d2e00000000000000000000000000000000000000000000000000000000081526004016121d19190613b40565b60405180910390fd5b565b6121e68282612545565b60006121f1826113c4565b9050600081511115612208576122078282612563565b5b505050565b60006002600083815260200190815260200160002060009054906101000a900473ffffffffffffffffffffffffffffffffffffffff169050919050565b600760006101000a81549073ffffffffffffffffffffffffffffffffffffffff021916905561227881611b01565b50565b600081600001549050919050565b8173ffffffffffffffffffffffffffffffffffffffff168373ffffffffffffffffffffffffffffffffffffffff1614156122f8576040517f08c379a00000000000000000000000000000000000000000000000000000000081526004016122ef90613d6a565b60405180910390fd5b80600560008573ffffffffffffffffffffffffffffffffffffffff1673ffffffffffffffffffffffffffffffffffffffff16815260200190815260200160002060008473ffffffffffffffffffffffffffffffffffffffff1673ffffffffffffffffffffffffffffffffffffffff16815260200190815260200160002060006101000a81548160ff0219169083151502179055508173ffffffffffffffffffffffffffffffffffffffff168373ffffffffffffffffffffffffffffffffffffffff167f17307eab39ab6107e8899845ad3d59bd9653f200f220920489ca2b5937696c31836040516123e99190613bd0565b60405180910390a3505050565b612401848484611dd2565b61240d8484848461266f565b61244c576040517f08c379a000000000000000000000000000000000000000000000000000000000815260040161244390613cca565b60405180910390fd5b50505050565b60606000600161246184612806565b01905060008167ffffffffffffffff8111156124805761247f6141e3565b5b6040519080825280601f01601f1916602001820160405280156124b25781602001600182028036833780820191505090505b509050600082602001820190505b60011561251f578080600190039150507f3031323334353637383961626364656600000000000000000000000000000000600a86061a8153600a858161250957612508614185565b5b049450600085141561251a5761251f565b6124c0565b819350505050919050565b6000612536600c612959565b612540600c61227b565b905090565b61255f82826040518060200160405280600081525061296f565b5050565b80600b6000848152602001908152602001600020908051906020019061258a929190612d59565b505050565b60008067ffffffffffffffff8111156125ab576125aa6141e3565b5b6040519080825280601f01601f1916602001820160405280156125dd5781602001600182028036833780820191505090505b5080519060200120600860008481526020019081526020016000206040516126059190613ad8565b604051809103902014159050919050565b61261f816129ca565b50565b60008073ffffffffffffffffffffffffffffffffffffffff166126448361220d565b73ffffffffffffffffffffffffffffffffffffffff1614159050919050565b50505050565b50505050565b60006126908473ffffffffffffffffffffffffffffffffffffffff16612b18565b156127f9578373ffffffffffffffffffffffffffffffffffffffff1663150b7a026126b9611c7c565b8786866040518563ffffffff1660e01b81526004016126db9493929190613b5b565b602060405180830381600087803b1580156126f557600080fd5b505af192505050801561272657506040513d601f19601f82011682018060405250810190612723919061338a565b60015b6127a9573d8060008114612756576040519150601f19603f3d011682016040523d82523d6000602084013e61275b565b606091505b506000815114156127a1576040517f08c379a000000000000000000000000000000000000000000000000000000000815260040161279890613cca565b60405180910390fd5b805181602001fd5b63150b7a0260e01b7bffffffffffffffffffffffffffffffffffffffffffffffffffffffff1916817bffffffffffffffffffffffffffffffffffffffffffffffffffffffff1916149150506127fe565b600190505b949350505050565b600080600090507a184f03e93ff9f4daa797ed6e38ed64bf6a1f0100000000000000008310612864577a184f03e93ff9f4daa797ed6e38ed64bf6a1f010000000000000000838161285a57612859614185565b5b0492506040810190505b6d04ee2d6d415b85acef810000000083106128a1576d04ee2d6d415b85acef8100000000838161289757612896614185565b5b0492506020810190505b662386f26fc1000083106128d057662386f26fc1000083816128c6576128c5614185565b5b0492506010810190505b6305f5e10083106128f9576305f5e10083816128ef576128ee614185565b5b0492506008810190505b612710831061291e57612710838161291457612913614185565b5b0492506004810190505b60648310612941576064838161293757612936614185565b5b0492506002810190505b600a8310612950576001810190505b80915050919050565b6001816000016000828254019250508190555050565b6129798383612b3b565b612986600084848461266f565b6129c5576040517f08c379a00000000000000000000000000000000000000000000000000000000081526004016129bc90613cca565b60405180910390fd5b505050565b60006129d582610f4f565b90506129e5816000846001612663565b6129ee82610f4f565b90506004600083815260200190815260200160002060006101000a81549073ffffffffffffffffffffffffffffffffffffffff02191690556001600360008373ffffffffffffffffffffffffffffffffffffffff1673ffffffffffffffffffffffffffffffffffffffff168152602001908152602001600020600082825403925050819055506002600083815260200190815260200160002060006101000a81549073ffffffffffffffffffffffffffffffffffffffff021916905581600073ffffffffffffffffffffffffffffffffffffffff168273ffffffffffffffffffffffffffffffffffffffff167fddf252ad1be2c89b69c2b068fc378daa952ba7f163c4a11628f55a4df523b3ef60405160405180910390a4612b14816000846001612669565b5050565b6000808273ffffffffffffffffffffffffffffffffffffffff163b119050919050565b600073ffffffffffffffffffffffffffffffffffffffff168273ffffffffffffffffffffffffffffffffffffffff161415612bab576040517f08c379a0000000000000000000000000000000000000000000000000000000008152600401612ba290613daa565b60405180910390fd5b612bb481612622565b15612bf4576040517f08c379a0000000000000000000000000000000000000000000000000000000008152600401612beb90613d2a565b60405180910390fd5b612c02600083836001612663565b612c0b81612622565b15612c4b576040517f08c379a0000000000000000000000000000000000000000000000000000000008152600401612c4290613d2a565b60405180910390fd5b6001600360008473ffffffffffffffffffffffffffffffffffffffff1673ffffffffffffffffffffffffffffffffffffffff16815260200190815260200160002060008282540192505081905550816002600083815260200190815260200160002060006101000a81548173ffffffffffffffffffffffffffffffffffffffff021916908373ffffffffffffffffffffffffffffffffffffffff160217905550808273ffffffffffffffffffffffffffffffffffffffff16600073ffffffffffffffffffffffffffffffffffffffff167fddf252ad1be2c89b69c2b068fc378daa952ba7f163c4a11628f55a4df523b3ef60405160405180910390a4612d55600083836001612669565b5050565b828054612d6590614122565b90600052602060002090601f016020900481019282612d875760008555612dce565b82601f10612da057805160ff1916838001178555612dce565b82800160010185558215612dce579182015b82811115612dcd578251825591602001919060010190612db2565b5b509050612ddb9190612e65565b5090565b828054612deb90614122565b90600052602060002090601f016020900481019282612e0d5760008555612e54565b82601f10612e2657803560ff1916838001178555612e54565b82800160010185558215612e54579182015b82811115612e53578235825591602001919060010190612e38565b5b509050612e619190612e65565b5090565b5b80821115612e7e576000816000905550600101612e66565b5090565b6000612e95612e9084613f2f565b613f0a565b905082815260208101848484011115612eb157612eb0614235565b5b612ebc8482856140e0565b509392505050565b6000612ed7612ed284613f60565b613f0a565b905082815260208101848484011115612ef357612ef2614235565b5b612efe8482856140e0565b509392505050565b600081359050612f15816145ef565b92915050565b600081359050612f2a81614606565b92915050565b600081359050612f3f8161461d565b92915050565b600081519050612f548161461d565b92915050565b600081359050612f6981614634565b92915050565b600081359050612f7e8161464b565b92915050565b600081519050612f938161464b565b92915050565b60008083601f840112612faf57612fae614217565b5b8235905067ffffffffffffffff811115612fcc57612fcb614212565b5b602083019150836001820283011115612fe857612fe761422b565b5b9250929050565b600082601f83011261300457613003614217565b5b8135613014848260208601612e82565b91505092915050565b600082601f83011261303257613031614217565b5b8135613042848260208601612ec4565b91505092915050565b600060a0828403121561306157613060614221565b5b81905092915050565b600060c082840312156130805761307f614221565b5b81905092915050565b60008135905061309881614662565b92915050565b6000815190506130ad81614662565b92915050565b6000602082840312156130c9576130c861423f565b5b60006130d784828501612f06565b91505092915050565b600080604083850312156130f7576130f661423f565b5b600061310585828601612f06565b925050602061311685828601612f06565b9150509250929050565b6000806000606084860312156131395761313861423f565b5b600061314786828701612f06565b935050602061315886828701612f06565b925050604061316986828701613089565b9150509250925092565b6000806000806080858703121561318d5761318c61423f565b5b600061319b87828801612f06565b94505060206131ac87828801612f06565b93505060406131bd87828801613089565b925050606085013567ffffffffffffffff8111156131de576131dd61423a565b5b6131ea87828801612fef565b91505092959194509250565b6000806040838503121561320d5761320c61423f565b5b600061321b85828601612f06565b925050602061322c85828601612f30565b9150509250929050565b6000806040838503121561324d5761324c61423f565b5b600061325b85828601612f06565b925050602061326c85828601613089565b9150509250929050565b60006020828403121561328c5761328b61423f565b5b600061329a84828501612f45565b91505092915050565b6000806000606084860312156132bc576132bb61423f565b5b60006132ca86828701612f5a565b93505060206132db86828701613089565b92505060406132ec86828701612f1b565b9150509250925092565b600080600080608085870312156133105761330f61423f565b5b600061331e87828801612f5a565b945050602061332f87828801613089565b935050604061334087828801612f1b565b925050606061335187828801612f1b565b91505092959194509250565b6000602082840312156133735761337261423f565b5b600061338184828501612f6f565b91505092915050565b6000602082840312156133a05761339f61423f565b5b60006133ae84828501612f84565b91505092915050565b6000602082840312156133cd576133cc61423f565b5b600082013567ffffffffffffffff8111156133eb576133ea61423a565b5b6133f78482850161301d565b91505092915050565b6000602082840312156134165761341561423f565b5b600082013567ffffffffffffffff8111156134345761343361423a565b5b6134408482850161304b565b91505092915050565b60006020828403121561345f5761345e61423f565b5b600082013567ffffffffffffffff81111561347d5761347c61423a565b5b6134898482850161306a565b91505092915050565b6000602082840312156134a8576134a761423f565b5b60006134b684828501613089565b91505092915050565b6000602082840312156134d5576134d461423f565b5b60006134e38482850161309e565b91505092915050565b6000806000606084860312156135055761350461423f565b5b600061351386828701613089565b935050602061352486828701612f06565b925050604061353586828701613089565b9150509250925092565b6000806000604084860312156135585761355761423f565b5b600061356686828701613089565b935050602084013567ffffffffffffffff8111156135875761358661423a565b5b61359386828701612f99565b92509250509250925092565b6135a88161401a565b82525050565b6135b78161403e565b82525050565b6135c68161404a565b82525050565b60006135d88385613ff3565b93506135e58385846140e0565b82840190509392505050565b60006135fc82613fbb565b6136068185613fd1565b93506136168185602086016140ef565b61361f81614244565b840191505092915050565b600061363582613fbb565b61363f8185613fe2565b935061364f8185602086016140ef565b61365881614244565b840191505092915050565b6000815461367081614122565b61367a8186613ff3565b9450600182166000811461369557600181146136a6576136d9565b60ff198316865281860193506136d9565b6136af85613f91565b60005b838110156136d1578154818901526001820191506020810190506136b2565b838801955050505b50505092915050565b6136eb816140aa565b82525050565b60006136fc82613fc6565b6137068185613ffe565b93506137168185602086016140ef565b61371f81614244565b840191505092915050565b600061373582613fc6565b61373f818561400f565b935061374f8185602086016140ef565b80840191505092915050565b6000815461376881614122565b613772818661400f565b9450600182166000811461378d576001811461379e576137d1565b60ff198316865281860193506137d1565b6137a785613fa6565b60005b838110156137c9578154818901526001820191506020810190506137aa565b838801955050505b50505092915050565b60006137e7602d83613ffe565b91506137f282614255565b604082019050919050565b600061380a603283613ffe565b9150613815826142a4565b604082019050919050565b600061382d602983613ffe565b9150613838826142f3565b604082019050919050565b6000613850602583613ffe565b915061385b82614342565b604082019050919050565b6000613873601c83613ffe565b915061387e82614391565b602082019050919050565b6000613896602483613ffe565b91506138a1826143ba565b604082019050919050565b60006138b9601983613ffe565b91506138c482614409565b602082019050919050565b60006138dc602983613ffe565b91506138e782614432565b604082019050919050565b60006138ff602083613ffe565b915061390a82614481565b602082019050919050565b600061392260058361400f565b915061392d826144aa565b600582019050919050565b6000613945602083613ffe565b9150613950826144d3565b602082019050919050565b6000613968601883613ffe565b9150613973826144fc565b602082019050919050565b600061398b602183613ffe565b915061399682614525565b604082019050919050565b60006139ae600083613ffe565b91506139b982614574565b600082019050919050565b60006139d1603d83613ffe565b91506139dc82614577565b604082019050919050565b60006139f460018361400f565b91506139ff826145c6565b600182019050919050565b600060c083016000830151613a226000860182613aa1565b5060208301518482036020860152613a3a82826135f1565b9150506040830151613a4f6040860182613aa1565b5060608301518482036060860152613a6782826135f1565b9150506080830151613a7c6080860182613aa1565b5060a083015184820360a0860152613a9482826135f1565b9150508091505092915050565b613aaa816140a0565b82525050565b613ab9816140a0565b82525050565b6000613acc8284866135cc565b91508190509392505050565b6000613ae48284613663565b915081905092915050565b6000613afb828461372a565b915081905092915050565b6000613b12828561375b565b9150613b1d826139e7565b9150613b29828461372a565b9150613b3482613915565b91508190509392505050565b6000602082019050613b55600083018461359f565b92915050565b6000608082019050613b70600083018761359f565b613b7d602083018661359f565b613b8a6040830185613ab0565b8181036060830152613b9c818461362a565b905095945050505050565b6000604082019050613bbc600083018561359f565b613bc96020830184613ab0565b9392505050565b6000602082019050613be560008301846135ae565b92915050565b6000602082019050613c0060008301846135bd565b92915050565b6000608082019050613c1b60008301876135bd565b613c286020830186613ab0565b613c35604083018561359f565b613c42606083018461359f565b95945050505050565b60006020820190508181036000830152613c65818461362a565b905092915050565b6000602082019050613c8260008301846136e2565b92915050565b60006020820190508181036000830152613ca281846136f1565b905092915050565b60006020820190508181036000830152613cc3816137da565b9050919050565b60006020820190508181036000830152613ce3816137fd565b9050919050565b60006020820190508181036000830152613d0381613820565b9050919050565b60006020820190508181036000830152613d2381613843565b9050919050565b60006020820190508181036000830152613d4381613866565b9050919050565b60006020820190508181036000830152613d6381613889565b9050919050565b60006020820190508181036000830152613d83816138ac565b9050919050565b60006020820190508181036000830152613da3816138cf565b9050919050565b60006020820190508181036000830152613dc3816138f2565b9050919050565b60006020820190508181036000830152613de381613938565b9050919050565b60006020820190508181036000830152613e038161395b565b9050919050565b60006020820190508181036000830152613e238161397e565b9050919050565b60006020820190508181036000830152613e43816139a1565b9050919050565b60006020820190508181036000830152613e63816139c4565b9050919050565b60006020820190508181036000830152613e848184613a0a565b905092915050565b6000602082019050613ea16000830184613ab0565b92915050565b60008083356001602003843603038112613ec457613ec3614226565b5b80840192508235915067ffffffffffffffff821115613ee657613ee561421c565b5b602083019250600182023603831315613f0257613f01614230565b5b509250929050565b6000613f14613f25565b9050613f208282614154565b919050565b6000604051905090565b600067ffffffffffffffff821115613f4a57613f496141e3565b5b613f5382614244565b9050602081019050919050565b600067ffffffffffffffff821115613f7b57613f7a6141e3565b5b613f8482614244565b9050602081019050919050565b60008190508160005260206000209050919050565b60008190508160005260206000209050919050565b600081519050919050565b600081519050919050565b600082825260208201905092915050565b600082825260208201905092915050565b600081905092915050565b600082825260208201905092915050565b600081905092915050565b600061402582614080565b9050919050565b600061403782614080565b9050919050565b60008115159050919050565b6000819050919050565b60007fffffffff0000000000000000000000000000000000000000000000000000000082169050919050565b600073ffffffffffffffffffffffffffffffffffffffff82169050919050565b6000819050919050565b60006140b5826140bc565b9050919050565b60006140c7826140ce565b9050919050565b60006140d982614080565b9050919050565b82818337600083830152505050565b60005b8381101561410d5780820151818401526020810190506140f2565b8381111561411c576000848401525b50505050565b6000600282049050600182168061413a57607f821691505b6020821081141561414e5761414d6141b4565b5b50919050565b61415d82614244565b810181811067ffffffffffffffff8211171561417c5761417b6141e3565b5b80604052505050565b7f4e487b7100000000000000000000000000000000000000000000000000000000600052601260045260246000fd5b7f4e487b7100000000000000000000000000000000000000000000000000000000600052602260045260246000fd5b7f4e487b7100000000000000000000000000000000000000000000000000000000600052604160045260246000fd5b600080fd5b600080fd5b600080fd5b600080fd5b600080fd5b600080fd5b600080fd5b600080fd5b600080fd5b600080fd5b6000601f19601f8301169050919050565b7f4552433732313a2063616c6c6572206973206e6f7420746f6b656e206f776e6560008201527f72206f7220617070726f76656400000000000000000000000000000000000000602082015250565b7f4552433732313a207472616e7366657220746f206e6f6e20455243373231526560008201527f63656976657220696d706c656d656e7465720000000000000000000000000000602082015250565b7f4f776e61626c6532537465703a2063616c6c6572206973206e6f74207468652060008201527f6e6577206f776e65720000000000000000000000000000000000000000000000602082015250565b7f4552433732313a207472616e736665722066726f6d20696e636f72726563742060008201527f6f776e6572000000000000000000000000000000000000000000000000000000602082015250565b7f4552433732313a20746f6b656e20616c7265616479206d696e74656400000000600082015250565b7f4552433732313a207472616e7366657220746f20746865207a65726f2061646460008201527f7265737300000000000000000000000000000000000000000000000000000000602082015250565b7f4552433732313a20617070726f766520746f2063616c6c657200000000000000600082015250565b7f4552433732313a2061646472657373207a65726f206973206e6f74206120766160008201527f6c6964206f776e65720000000000000000000000000000000000000000000000602082015250565b7f4552433732313a206d696e7420746f20746865207a65726f2061646472657373600082015250565b7f2e6a736f6e000000000000000000000000000000000000000000000000000000600082015250565b7f4f776e61626c653a2063616c6c6572206973206e6f7420746865206f776e6572600082015250565b7f4552433732313a20696e76616c696420746f6b656e2049440000000000000000600082015250565b7f4552433732313a20617070726f76616c20746f2063757272656e74206f776e6560008201527f7200000000000000000000000000000000000000000000000000000000000000602082015250565b50565b7f4552433732313a20617070726f76652063616c6c6572206973206e6f7420746f60008201527f6b656e206f776e6572206f7220617070726f76656420666f7220616c6c000000602082015250565b7f2f00000000000000000000000000000000000000000000000000000000000000600082015250565b6145f88161401a565b811461460357600080fd5b50565b61460f8161402c565b811461461a57600080fd5b50565b6146268161403e565b811461463157600080fd5b50565b61463d8161404a565b811461464857600080fd5b50565b61465481614054565b811461465f57600080fd5b50565b61466b816140a0565b811461467657600080fd5b5056fea2646970667358221220bbe7d461ddd827c7f8ecc0c9c98a87687fc182ce6dd686ddf4cfa21523d0835264736f6c63430008070033",
  "linkReferences": {},
  "deployedLinkReferences": {}
}